{
  "_format": "hh-sol-artifact-1",
  "contractName": "LandBankAdminFacet",
  "sourceName": "contracts/facets/LandBankAdminFacet.sol",
  "abi": [
    {
      "anonymous": false,
      "inputs": [
        {
          "indexed": false,
          "internalType": "address",
          "name": "tokenContract",
          "type": "address"
        },
        {
          "indexed": false,
          "internalType": "address",
          "name": "recipient",
          "type": "address"
        },
        {
          "indexed": false,
          "internalType": "uint256",
          "name": "amount",
          "type": "uint256"
        }
      ],
      "name": "AdminTokenWithdrawal",
      "type": "event"
    },
    {
      "anonymous": false,
      "inputs": [
        {
          "indexed": false,
          "internalType": "address",
          "name": "recipient",
          "type": "address"
        },
        {
          "indexed": false,
          "internalType": "uint256",
          "name": "amount",
          "type": "uint256"
        }
      ],
      "name": "AdminWithdrawal",
      "type": "event"
    },
    {
      "anonymous": false,
      "inputs": [
        {
          "indexed": false,
          "internalType": "uint256",
          "name": "",
          "type": "uint256"
        }
      ],
      "name": "FeeRateUpdated",
      "type": "event"
    },
    {
      "anonymous": false,
      "inputs": [
        {
          "indexed": false,
          "internalType": "uint256",
          "name": "",
          "type": "uint256"
        }
      ],
      "name": "MaxDistrictIdUpdated",
      "type": "event"
    },
    {
      "anonymous": false,
      "inputs": [
        {
          "indexed": false,
          "internalType": "uint256",
          "name": "",
          "type": "uint256"
        }
      ],
      "name": "PixelCostUpdated",
      "type": "event"
    },
    {
      "anonymous": false,
      "inputs": [
        {
          "indexed": false,
          "internalType": "uint256",
          "name": "",
          "type": "uint256"
        }
      ],
      "name": "RebuyDelayUpdated",
      "type": "event"
    },
    {
      "anonymous": false,
      "inputs": [
        {
          "indexed": false,
          "internalType": "uint256",
          "name": "index",
          "type": "uint256"
        },
        {
          "indexed": false,
          "internalType": "uint256",
          "name": "duration",
          "type": "uint256"
        },
        {
          "indexed": false,
          "internalType": "uint256",
          "name": "tokensPerSecond",
          "type": "uint256"
        }
      ],
      "name": "RewardTierUpdated",
      "type": "event"
    },
    {
      "anonymous": false,
      "inputs": [
        {
          "indexed": true,
          "internalType": "bytes32",
          "name": "role",
          "type": "bytes32"
        },
        {
          "indexed": true,
          "internalType": "bytes32",
          "name": "previousAdminRole",
          "type": "bytes32"
        },
        {
          "indexed": true,
          "internalType": "bytes32",
          "name": "newAdminRole",
          "type": "bytes32"
        }
      ],
      "name": "RoleAdminChanged",
      "type": "event"
    },
    {
      "anonymous": false,
      "inputs": [
        {
          "indexed": true,
          "internalType": "bytes32",
          "name": "role",
          "type": "bytes32"
        },
        {
          "indexed": true,
          "internalType": "address",
          "name": "account",
          "type": "address"
        },
        {
          "indexed": true,
          "internalType": "address",
          "name": "sender",
          "type": "address"
        }
      ],
      "name": "RoleGranted",
      "type": "event"
    },
    {
      "anonymous": false,
      "inputs": [
        {
          "indexed": true,
          "internalType": "bytes32",
          "name": "role",
          "type": "bytes32"
        },
        {
          "indexed": true,
          "internalType": "address",
          "name": "account",
          "type": "address"
        },
        {
          "indexed": true,
          "internalType": "address",
          "name": "sender",
          "type": "address"
        }
      ],
      "name": "RoleRevoked",
      "type": "event"
    },
    {
      "inputs": [
        {
          "internalType": "address payable",
          "name": "recipient",
          "type": "address"
        },
        {
          "internalType": "uint256",
          "name": "amount",
          "type": "uint256"
        }
      ],
      "name": "adminWithdraw",
      "outputs": [],
      "stateMutability": "nonpayable",
      "type": "function"
    },
    {
      "inputs": [
        {
          "internalType": "address",
          "name": "tokenContract",
          "type": "address"
        },
        {
          "internalType": "address",
          "name": "recipient",
          "type": "address"
        },
        {
          "internalType": "uint256",
          "name": "amount",
          "type": "uint256"
        }
      ],
      "name": "adminWithdrawTokens",
      "outputs": [],
      "stateMutability": "nonpayable",
      "type": "function"
    },
    {
      "inputs": [
        {
          "internalType": "uint256",
          "name": "index",
          "type": "uint256"
        },
        {
          "internalType": "uint256",
          "name": "duration",
          "type": "uint256"
        },
        {
          "internalType": "uint256",
          "name": "tokensPerSecond",
          "type": "uint256"
        }
      ],
      "name": "setRewardTier",
      "outputs": [],
      "stateMutability": "nonpayable",
      "type": "function"
    },
    {
      "inputs": [
        {
          "internalType": "uint256",
          "name": "newFeeRate",
          "type": "uint256"
        }
      ],
      "name": "updateFeeRate",
      "outputs": [],
      "stateMutability": "nonpayable",
      "type": "function"
    },
    {
      "inputs": [
        {
          "internalType": "uint256",
          "name": "newMax",
          "type": "uint256"
        }
      ],
      "name": "updateMaxDistrictId",
      "outputs": [],
      "stateMutability": "nonpayable",
      "type": "function"
    },
    {
      "inputs": [
        {
          "internalType": "uint256",
          "name": "newPixelCost",
          "type": "uint256"
        }
      ],
      "name": "updatePixelCost",
      "outputs": [],
      "stateMutability": "nonpayable",
      "type": "function"
    },
    {
      "inputs": [
        {
          "internalType": "uint256",
          "name": "newRebuyDelay",
          "type": "uint256"
        }
      ],
      "name": "updateRebuyDelay",
      "outputs": [],
      "stateMutability": "nonpayable",
      "type": "function"
    }
  ],
  "bytecode": "0x6080604052348015600f57600080fd5b50610c808061001f6000396000f3fe608060405234801561001057600080fd5b506004361061007d5760003560e01c80637292c59b1161005b5780637292c59b146100d65780637b84fda5146100f25780638f5f0fa11461010e578063faf003c01461012a5761007d565b80632b5fe5d014610082578063401d44821461009e57806368a7710a146100ba575b600080fd5b61009c60048036038101906100979190610861565b610146565b005b6100b860048036038101906100b391906108ec565b6101ff565b005b6100d460048036038101906100cf919061096a565b6102ec565b005b6100f060048036038101906100eb91906109bd565b61041c565b005b61010c60048036038101906101079190610861565b610513565b005b61012860048036038101906101239190610861565b6105cc565b005b610144600480360381019061013f9190610861565b610685565b005b6101707f095dcc9112149bb222df55c39eb20998eb9d4e8d76ea408fdb276debb7e4dd263361073e565b6101af576040517f08c379a00000000000000000000000000000000000000000000000000000000081526004016101a690610a6d565b60405180910390fd5b60006101b9610779565b90508181600601819055507f7c6f9320bf3fe0a54bbcd318ecda09dc4013445561d5a5f9064e7852a6fff735826040516101f39190610a9c565b60405180910390a15050565b6102297f095dcc9112149bb222df55c39eb20998eb9d4e8d76ea408fdb276debb7e4dd263361073e565b610268576040517f08c379a000000000000000000000000000000000000000000000000000000000815260040161025f90610a6d565b60405180910390fd5b8173ffffffffffffffffffffffffffffffffffffffff166108fc829081150290604051600060405180830381858888f193505050501580156102ae573d6000803e3d6000fd5b507f1f29bc8239df330207e019f41493b485f9c7d3ce83a795ae64603dde527ada2e82826040516102e0929190610b16565b60405180910390a15050565b6103167f095dcc9112149bb222df55c39eb20998eb9d4e8d76ea408fdb276debb7e4dd263361073e565b610355576040517f08c379a000000000000000000000000000000000000000000000000000000000815260040161034c90610a6d565b60405180910390fd5b8273ffffffffffffffffffffffffffffffffffffffff1663a9059cbb83836040518363ffffffff1660e01b8152600401610390929190610b4e565b6020604051808303816000875af11580156103af573d6000803e3d6000fd5b505050506040513d601f19601f820116820180604052508101906103d39190610baf565b6103dc57600080fd5b7ff861b55698d4a70a5be19bf37e01c462295d3aae91b7b5dc6b84ccebd6007ac483838360405161040f93929190610bdc565b60405180910390a1505050565b6104467f095dcc9112149bb222df55c39eb20998eb9d4e8d76ea408fdb276debb7e4dd263361073e565b610485576040517f08c379a000000000000000000000000000000000000000000000000000000000815260040161047c90610a6d565b60405180910390fd5b600061048f610779565b905060405180604001604052808481526020018381525081600b01600086815260200190815260200160002060008201518160000155602082015181600101559050507f978be5d4de4dcf7fd42e4af26fc55cb48d35a2298f06f3cf671ce5e9f82e748e84848460405161050593929190610c13565b60405180910390a150505050565b61053d7f095dcc9112149bb222df55c39eb20998eb9d4e8d76ea408fdb276debb7e4dd263361073e565b61057c576040517f08c379a000000000000000000000000000000000000000000000000000000000815260040161057390610a6d565b60405180910390fd5b6000610586610779565b90508181600501819055507f208f1b468d3d61f0f085e975bd9d04367c930d599642faad06695229f3eadcd8826040516105c09190610a9c565b60405180910390a15050565b6105f67f095dcc9112149bb222df55c39eb20998eb9d4e8d76ea408fdb276debb7e4dd263361073e565b610635576040517f08c379a000000000000000000000000000000000000000000000000000000000815260040161062c90610a6d565b60405180910390fd5b600061063f610779565b90508181600301819055507f5feb37365e40a7906ed4abd12857071eecb6c0563972af3dc1d987906788517a826040516106799190610a9c565b60405180910390a15050565b6106af7f095dcc9112149bb222df55c39eb20998eb9d4e8d76ea408fdb276debb7e4dd263361073e565b6106ee576040517f08c379a00000000000000000000000000000000000000000000000000000000081526004016106e590610a6d565b60405180910390fd5b60006106f8610779565b90508181600401819055507fd0ee7f25ac9ce27cc4cbae2dda877893de560d76011e3722dbe469181e3466be826040516107329190610a9c565b60405180910390a15050565b60006107718261074c6107a6565b60000160008681526020019081526020016000206000016107d390919063ffffffff16565b905092915050565b6000807fa4e2f18d28b302b06b1e3cb16019cb164aad33e7da557894e1cf0c25324bcdb290508091505090565b6000807fd3889cc5458b268d0544e5534672df1296288ca3f93cbd39bd6f497a5c62281190508091505090565b60006107fb836000018373ffffffffffffffffffffffffffffffffffffffff1660001b610803565b905092915050565b600080836001016000848152602001908152602001600020541415905092915050565b600080fd5b6000819050919050565b61083e8161082b565b811461084957600080fd5b50565b60008135905061085b81610835565b92915050565b60006020828403121561087757610876610826565b5b60006108858482850161084c565b91505092915050565b600073ffffffffffffffffffffffffffffffffffffffff82169050919050565b60006108b98261088e565b9050919050565b6108c9816108ae565b81146108d457600080fd5b50565b6000813590506108e6816108c0565b92915050565b6000806040838503121561090357610902610826565b5b6000610911858286016108d7565b92505060206109228582860161084c565b9150509250929050565b60006109378261088e565b9050919050565b6109478161092c565b811461095257600080fd5b50565b6000813590506109648161093e565b92915050565b60008060006060848603121561098357610982610826565b5b600061099186828701610955565b93505060206109a286828701610955565b92505060406109b38682870161084c565b9150509250925092565b6000806000606084860312156109d6576109d5610826565b5b60006109e48682870161084c565b93505060206109f58682870161084c565b9250506040610a068682870161084c565b9150509250925092565b600082825260208201905092915050565b7f4e6f74204c616e6442616e6b2061646d696e0000000000000000000000000000600082015250565b6000610a57601283610a10565b9150610a6282610a21565b602082019050919050565b60006020820190508181036000830152610a8681610a4a565b9050919050565b610a968161082b565b82525050565b6000602082019050610ab16000830184610a8d565b92915050565b6000819050919050565b6000610adc610ad7610ad28461088e565b610ab7565b61088e565b9050919050565b6000610aee82610ac1565b9050919050565b6000610b0082610ae3565b9050919050565b610b1081610af5565b82525050565b6000604082019050610b2b6000830185610b07565b610b386020830184610a8d565b9392505050565b610b488161092c565b82525050565b6000604082019050610b636000830185610b3f565b610b706020830184610a8d565b9392505050565b60008115159050919050565b610b8c81610b77565b8114610b9757600080fd5b50565b600081519050610ba981610b83565b92915050565b600060208284031215610bc557610bc4610826565b5b6000610bd384828501610b9a565b91505092915050565b6000606082019050610bf16000830186610b3f565b610bfe6020830185610b3f565b610c0b6040830184610a8d565b949350505050565b6000606082019050610c286000830186610a8d565b610c356020830185610a8d565b610c426040830184610a8d565b94935050505056fea2646970667358221220efcf5c860db2486ccdecdd6cd11e2a773f5646a8a4dc278bc3b7a4823ee131e664736f6c634300081b0033",
  "linkReferences": {},
  "deployedLinkReferences": {}
}