{
  "_format": "hh-sol-artifact-1",
  "contractName": "LandBankMainFacet",
  "sourceName": "contracts/facets/LandBankMainFacet.sol",
  "abi": [
    {
      "inputs": [],
      "name": "ReentrancyGuardReentrantCall",
      "type": "error"
    },
    {
      "anonymous": false,
      "inputs": [
        {
          "indexed": false,
          "internalType": "uint256",
          "name": "amount",
          "type": "uint256"
        }
      ],
      "name": "Burn",
      "type": "event"
    },
    {
      "anonymous": false,
      "inputs": [
        {
          "indexed": false,
          "internalType": "address",
          "name": "sender",
          "type": "address"
        },
        {
          "indexed": false,
          "internalType": "uint256",
          "name": "amount",
          "type": "uint256"
        }
      ],
      "name": "Deposit",
      "type": "event"
    },
    {
      "anonymous": false,
      "inputs": [
        {
          "indexed": false,
          "internalType": "address",
          "name": "",
          "type": "address"
        },
        {
          "indexed": false,
          "internalType": "uint256",
          "name": "",
          "type": "uint256"
        }
      ],
      "name": "LandPixelBought",
      "type": "event"
    },
    {
      "anonymous": false,
      "inputs": [
        {
          "indexed": false,
          "internalType": "address",
          "name": "",
          "type": "address"
        },
        {
          "indexed": false,
          "internalType": "uint256",
          "name": "",
          "type": "uint256"
        }
      ],
      "name": "LandPixelMinted",
      "type": "event"
    },
    {
      "anonymous": false,
      "inputs": [
        {
          "indexed": false,
          "internalType": "address",
          "name": "",
          "type": "address"
        },
        {
          "indexed": false,
          "internalType": "uint256",
          "name": "",
          "type": "uint256"
        }
      ],
      "name": "LandPixelSold",
      "type": "event"
    },
    {
      "anonymous": false,
      "inputs": [
        {
          "indexed": false,
          "internalType": "address",
          "name": "",
          "type": "address"
        },
        {
          "indexed": false,
          "internalType": "uint256",
          "name": "",
          "type": "uint256"
        }
      ],
      "name": "LandPixelStaked",
      "type": "event"
    },
    {
      "anonymous": false,
      "inputs": [
        {
          "indexed": false,
          "internalType": "address",
          "name": "",
          "type": "address"
        },
        {
          "indexed": false,
          "internalType": "uint256",
          "name": "",
          "type": "uint256"
        }
      ],
      "name": "LandPixelUnstaked",
      "type": "event"
    },
    {
      "anonymous": false,
      "inputs": [
        {
          "indexed": false,
          "internalType": "address",
          "name": "",
          "type": "address"
        },
        {
          "indexed": false,
          "internalType": "uint256",
          "name": "",
          "type": "uint256"
        }
      ],
      "name": "StakingRewardMinted",
      "type": "event"
    },
    {
      "anonymous": false,
      "inputs": [
        {
          "indexed": false,
          "internalType": "address",
          "name": "recipient",
          "type": "address"
        },
        {
          "indexed": false,
          "internalType": "uint256",
          "name": "amount",
          "type": "uint256"
        }
      ],
      "name": "Withdrawal",
      "type": "event"
    },
    {
      "inputs": [
        {
          "internalType": "uint256[]",
          "name": "tokenIds",
          "type": "uint256[]"
        }
      ],
      "name": "buyLandPixels",
      "outputs": [],
      "stateMutability": "payable",
      "type": "function"
    },
    {
      "inputs": [],
      "name": "floorPrice",
      "outputs": [
        {
          "internalType": "uint256",
          "name": "",
          "type": "uint256"
        }
      ],
      "stateMutability": "view",
      "type": "function"
    },
    {
      "inputs": [],
      "name": "getCurrentMintReward",
      "outputs": [
        {
          "internalType": "uint256",
          "name": "",
          "type": "uint256"
        }
      ],
      "stateMutability": "view",
      "type": "function"
    },
    {
      "inputs": [],
      "name": "getDstrxTokenAddress",
      "outputs": [
        {
          "internalType": "address",
          "name": "",
          "type": "address"
        }
      ],
      "stateMutability": "view",
      "type": "function"
    },
    {
      "inputs": [],
      "name": "getFeeRate",
      "outputs": [
        {
          "internalType": "uint256",
          "name": "",
          "type": "uint256"
        }
      ],
      "stateMutability": "view",
      "type": "function"
    },
    {
      "inputs": [],
      "name": "getLandPixelAddress",
      "outputs": [
        {
          "internalType": "address",
          "name": "",
          "type": "address"
        }
      ],
      "stateMutability": "view",
      "type": "function"
    },
    {
      "inputs": [],
      "name": "getMaxDistrictId",
      "outputs": [
        {
          "internalType": "uint256",
          "name": "",
          "type": "uint256"
        }
      ],
      "stateMutability": "view",
      "type": "function"
    },
    {
      "inputs": [],
      "name": "getPixelCost",
      "outputs": [
        {
          "internalType": "uint256",
          "name": "",
          "type": "uint256"
        }
      ],
      "stateMutability": "view",
      "type": "function"
    },
    {
      "inputs": [],
      "name": "getRebuyDelay",
      "outputs": [
        {
          "internalType": "uint256",
          "name": "",
          "type": "uint256"
        }
      ],
      "stateMutability": "view",
      "type": "function"
    },
    {
      "inputs": [
        {
          "internalType": "uint256[]",
          "name": "tokenIds",
          "type": "uint256[]"
        }
      ],
      "name": "mintLandPixels",
      "outputs": [],
      "stateMutability": "payable",
      "type": "function"
    },
    {
      "inputs": [
        {
          "internalType": "uint256",
          "name": "tokenId",
          "type": "uint256"
        }
      ],
      "name": "sellLandPixel",
      "outputs": [],
      "stateMutability": "payable",
      "type": "function"
    },
    {
      "stateMutability": "payable",
      "type": "receive"
    }
  ],
  "bytecode": "0x6080604052348015600f57600080fd5b506001600081905550611b3a806100276000396000f3fe6080604052600436106100a05760003560e01c8063b42c767711610064578063b42c7677146101ad578063c2f89eef146101d8578063c929609714610203578063dc0ec3751461022e578063e2226c6c14610259578063fbfa9b6414610275576100e0565b806307b2ec15146100e557806384e5eed0146101015780638a8a2ced1461012c5780639363c8121461015757806394d0dad814610182576100e0565b366100e0577fe1fffcc4923d04b559f4d29a8bfc6cda04eb5b0d3c460751c2402c5c5cc9109c33346040516100d692919061135e565b60405180910390a1005b600080fd5b6100ff60048036038101906100fa91906113c7565b610291565b005b34801561010d57600080fd5b5061011661057c565b60405161012391906113f4565b60405180910390f35b34801561013857600080fd5b5061014161058f565b60405161014e91906113f4565b60405180910390f35b34801561016357600080fd5b5061016c6105a2565b60405161017991906113f4565b60405180910390f35b34801561018e57600080fd5b5061019761075d565b6040516101a491906113f4565b60405180910390f35b3480156101b957600080fd5b506101c2610770565b6040516101cf91906113f4565b60405180910390f35b3480156101e457600080fd5b506101ed6107ce565b6040516101fa919061140f565b60405180910390f35b34801561020f57600080fd5b50610218610801565b604051610225919061140f565b60405180910390f35b34801561023a57600080fd5b50610243610834565b60405161025091906113f4565b60405180910390f35b610273600480360381019061026e9190611583565b610847565b005b61028f600480360381019061028a9190611583565b610c89565b005b610299611096565b60006102a36110dc565b90503373ffffffffffffffffffffffffffffffffffffffff168160000160009054906101000a900473ffffffffffffffffffffffffffffffffffffffff1673ffffffffffffffffffffffffffffffffffffffff16636352211e846040518263ffffffff1660e01b815260040161031991906113f4565b602060405180830381865afa158015610336573d6000803e3d6000fd5b505050506040513d601f19601f8201168201806040525081019061035a91906115f8565b73ffffffffffffffffffffffffffffffffffffffff16146103b0576040517f08c379a00000000000000000000000000000000000000000000000000000000081526004016103a790611682565b60405180910390fd5b8060060154816008016000848152602001908152602001600020546103d591906116d1565b421015610417576040517f08c379a000000000000000000000000000000000000000000000000000000000815260040161040e90611751565b60405180910390fd5b60006104216105a2565b90508160000160009054906101000a900473ffffffffffffffffffffffffffffffffffffffff1673ffffffffffffffffffffffffffffffffffffffff166323b872dd3330866040518463ffffffff1660e01b815260040161048493929190611771565b600060405180830381600087803b15801561049e57600080fd5b505af11580156104b2573d6000803e3d6000fd5b505050503373ffffffffffffffffffffffffffffffffffffffff166108fc829081150290604051600060405180830381858888f193505050501580156104fc573d6000803e3d6000fd5b507f7fcf532c15f0a6db0bd6d0e038bea71d30d808c7d98cb3bf7268a95bf5081b65338260405161052e92919061135e565b60405180910390a17fcfb9d694056a72b6313d0251a3a57a793510a3af86251b2fdc7b3f33a22fb794338460405161056792919061135e565b60405180910390a150506105796110eb565b50565b60006105866110dc565b60050154905090565b60006105996110dc565b60040154905090565b6000806105ad6110dc565b9050600081600b01548260000160009054906101000a900473ffffffffffffffffffffffffffffffffffffffff1673ffffffffffffffffffffffffffffffffffffffff166370a08231306040518263ffffffff1660e01b8152600401610613919061140f565b602060405180830381865afa158015610630573d6000803e3d6000fd5b505050506040513d601f19601f8201168201806040525081019061065491906117bd565b61065e91906117ea565b8260000160009054906101000a900473ffffffffffffffffffffffffffffffffffffffff1673ffffffffffffffffffffffffffffffffffffffff166318160ddd6040518163ffffffff1660e01b8152600401602060405180830381865afa1580156106cd573d6000803e3d6000fd5b505050506040513d601f19601f820116820180604052508101906106f191906117bd565b6106fb91906117ea565b9050600081116107105760009250505061075a565b600047905060008282610723919061184d565b9050600061271085600501548361073a919061187e565b610744919061184d565b9050808261075291906117ea565b955050505050505b90565b60006107676110dc565b60060154905090565b60008061077b6110dc565b9050600081600e01546a52b7d2dcc80cd2e400000061079a91906117ea565b90506a52b7d2dcc80cd2e40000008168056bc75e2d631000006107bd919061187e565b6107c7919061184d565b9250505090565b60006107d86110dc565b60010160009054906101000a900473ffffffffffffffffffffffffffffffffffffffff16905090565b600061080b6110dc565b60000160009054906101000a900473ffffffffffffffffffffffffffffffffffffffff16905090565b600061083e6110dc565b60030154905090565b61084f611096565b60006108596110dc565b905060008251826003015461086e919061187e565b9050803410156108b3576040517f08c379a00000000000000000000000000000000000000000000000000000000081526004016108aa9061190c565b60405180910390fd5b600083519050600083600e015490506000816a52b7d2dcc80cd2e40000006108db91906117ea565b905060006a52b7d2dcc80cd2e40000008268056bc75e2d6310000086610901919061187e565b61090b919061187e565b610915919061184d565b905060006a52b7d2dcc80cd2e40000006a108b2a2c280290940000008361093c919061187e565b610946919061184d565b905060005b8581101561098457610977338a838151811061096a5761096961192c565b5b60200260200101516110f5565b808060010191505061094b565b506a52b7d2dcc80cd2e40000008288600e01546109a191906116d1565b11156109e2576040517f08c379a00000000000000000000000000000000000000000000000000000000081526004016109d9906119a7565b60405180910390fd5b8660010160009054906101000a900473ffffffffffffffffffffffffffffffffffffffff1673ffffffffffffffffffffffffffffffffffffffff166340c10f1933846040518363ffffffff1660e01b8152600401610a4192919061135e565b600060405180830381600087803b158015610a5b57600080fd5b505af1158015610a6f573d6000803e3d6000fd5b505050508660010160009054906101000a900473ffffffffffffffffffffffffffffffffffffffff1673ffffffffffffffffffffffffffffffffffffffff166340c10f1930836040518363ffffffff1660e01b8152600401610ad292919061135e565b600060405180830381600087803b158015610aec57600080fd5b505af1158015610b00573d6000803e3d6000fd5b505050508187600e016000828254610b1891906116d1565b9250508190555085341115610b7a573373ffffffffffffffffffffffffffffffffffffffff166108fc8734610b4d91906117ea565b9081150290604051600060405180830381858888f19350505050158015610b78573d6000803e3d6000fd5b505b7fe1fffcc4923d04b559f4d29a8bfc6cda04eb5b0d3c460751c2402c5c5cc9109c3387604051610bab92919061135e565b60405180910390a16000612710878960070154610bc8919061187e565b610bd2919061184d565b90508760020160009054906101000a900473ffffffffffffffffffffffffffffffffffffffff1673ffffffffffffffffffffffffffffffffffffffff166108fc829081150290604051600060405180830381858888f19350505050158015610c3e573d6000803e3d6000fd5b507fb90306ad06b2a6ff86ddc9327db583062895ef6540e62dc50add009db5b356eb81604051610c6e91906113f4565b60405180910390a15050505050505050610c866110eb565b50565b610c91611096565b6000610c9b6110dc565b9050600082518260030154610cb0919061187e565b905080341015610cf5576040517f08c379a0000000000000000000000000000000000000000000000000000000008152600401610cec9061190c565b60405180910390fd5b60005b8351811015610ff4573073ffffffffffffffffffffffffffffffffffffffff168360000160009054906101000a900473ffffffffffffffffffffffffffffffffffffffff1673ffffffffffffffffffffffffffffffffffffffff16636352211e868481518110610d6b57610d6a61192c565b5b60200260200101516040518263ffffffff1660e01b8152600401610d8f91906113f4565b602060405180830381865afa158015610dac573d6000803e3d6000fd5b505050506040513d601f19601f82011682018060405250810190610dd091906115f8565b73ffffffffffffffffffffffffffffffffffffffff1614610e26576040517f08c379a0000000000000000000000000000000000000000000000000000000008152600401610e1d90611a13565b60405180910390fd5b600073ffffffffffffffffffffffffffffffffffffffff16836009016000868481518110610e5757610e5661192c565b5b6020026020010151815260200190815260200160002060000160009054906101000a900473ffffffffffffffffffffffffffffffffffffffff1673ffffffffffffffffffffffffffffffffffffffff1614610ee7576040517f08c379a0000000000000000000000000000000000000000000000000000000008152600401610ede90611a7f565b60405180910390fd5b8260000160009054906101000a900473ffffffffffffffffffffffffffffffffffffffff1673ffffffffffffffffffffffffffffffffffffffff166323b872dd3033878581518110610f3c57610f3b61192c565b5b60200260200101516040518463ffffffff1660e01b8152600401610f6293929190611771565b600060405180830381600087803b158015610f7c57600080fd5b505af1158015610f90573d6000803e3d6000fd5b505050507f8b54b420f1933725c09ac7c4a2cd8da2c31293c556dad4b336f2b4e697bfa66133858381518110610fc957610fc861192c565b5b6020026020010151604051610fdf92919061135e565b60405180910390a18080600101915050610cf8565b5080341115611050573373ffffffffffffffffffffffffffffffffffffffff166108fc823461102391906117ea565b9081150290604051600060405180830381858888f1935050505015801561104e573d6000803e3d6000fd5b505b7fe1fffcc4923d04b559f4d29a8bfc6cda04eb5b0d3c460751c2402c5c5cc9109c338260405161108192919061135e565b60405180910390a150506110936110eb565b50565b6002600054036110d2576040517f3ee5aeb500000000000000000000000000000000000000000000000000000000815260040160405180910390fd5b6002600081905550565b60006110e66112d7565b905090565b6001600081905550565b60006110ff6110dc565b90508060040154821015806111ae57508060000160009054906101000a900473ffffffffffffffffffffffffffffffffffffffff1673ffffffffffffffffffffffffffffffffffffffff16634f558e79836040518263ffffffff1660e01b815260040161116c91906113f4565b602060405180830381865afa158015611189573d6000803e3d6000fd5b505050506040513d601f19601f820116820180604052508101906111ad9190611ad7565b5b156111ee576040517f08c379a00000000000000000000000000000000000000000000000000000000081526004016111e590611a13565b60405180910390fd5b8060000160009054906101000a900473ffffffffffffffffffffffffffffffffffffffff1673ffffffffffffffffffffffffffffffffffffffff1663a144819484846040518363ffffffff1660e01b815260040161124d92919061135e565b600060405180830381600087803b15801561126757600080fd5b505af115801561127b573d6000803e3d6000fd5b5050505042816008016000848152602001908152602001600020819055507f0d5e37ba1fd9169812fb45e48679f5584404a8908dd8012790a33c2b35ce090283836040516112ca92919061135e565b60405180910390a1505050565b6000807fa4e2f18d28b302b06b1e3cb16019cb164aad33e7da557894e1cf0c25324bcdb290508091505090565b600073ffffffffffffffffffffffffffffffffffffffff82169050919050565b600061132f82611304565b9050919050565b61133f81611324565b82525050565b6000819050919050565b61135881611345565b82525050565b60006040820190506113736000830185611336565b611380602083018461134f565b9392505050565b6000604051905090565b600080fd5b600080fd5b6113a481611345565b81146113af57600080fd5b50565b6000813590506113c18161139b565b92915050565b6000602082840312156113dd576113dc611391565b5b60006113eb848285016113b2565b91505092915050565b6000602082019050611409600083018461134f565b92915050565b60006020820190506114246000830184611336565b92915050565b600080fd5b6000601f19601f8301169050919050565b7f4e487b7100000000000000000000000000000000000000000000000000000000600052604160045260246000fd5b6114788261142f565b810181811067ffffffffffffffff8211171561149757611496611440565b5b80604052505050565b60006114aa611387565b90506114b6828261146f565b919050565b600067ffffffffffffffff8211156114d6576114d5611440565b5b602082029050602081019050919050565b600080fd5b60006114ff6114fa846114bb565b6114a0565b90508083825260208201905060208402830185811115611522576115216114e7565b5b835b8181101561154b578061153788826113b2565b845260208401935050602081019050611524565b5050509392505050565b600082601f83011261156a5761156961142a565b5b813561157a8482602086016114ec565b91505092915050565b60006020828403121561159957611598611391565b5b600082013567ffffffffffffffff8111156115b7576115b6611396565b5b6115c384828501611555565b91505092915050565b6115d581611324565b81146115e057600080fd5b50565b6000815190506115f2816115cc565b92915050565b60006020828403121561160e5761160d611391565b5b600061161c848285016115e3565b91505092915050565b600082825260208201905092915050565b7f4e6f744c616e64506978656c4f776e6572000000000000000000000000000000600082015250565b600061166c601183611625565b915061167782611636565b602082019050919050565b6000602082019050818103600083015261169b8161165f565b9050919050565b7f4e487b7100000000000000000000000000000000000000000000000000000000600052601160045260246000fd5b60006116dc82611345565b91506116e783611345565b92508282019050808211156116ff576116fe6116a2565b5b92915050565b7f526562757944656c61794e6f74456c6170736564000000000000000000000000600082015250565b600061173b601483611625565b915061174682611705565b602082019050919050565b6000602082019050818103600083015261176a8161172e565b9050919050565b60006060820190506117866000830186611336565b6117936020830185611336565b6117a0604083018461134f565b949350505050565b6000815190506117b78161139b565b92915050565b6000602082840312156117d3576117d2611391565b5b60006117e1848285016117a8565b91505092915050565b60006117f582611345565b915061180083611345565b9250828203905081811115611818576118176116a2565b5b92915050565b7f4e487b7100000000000000000000000000000000000000000000000000000000600052601260045260246000fd5b600061185882611345565b915061186383611345565b9250826118735761187261181e565b5b828204905092915050565b600061188982611345565b915061189483611345565b92508282026118a281611345565b915082820484148315176118b9576118b86116a2565b5b5092915050565b7f496e73756666696369656e744465706f73697400000000000000000000000000600082015250565b60006118f6601383611625565b9150611901826118c0565b602082019050919050565b60006020820190508181036000830152611925816118e9565b9050919050565b7f4e487b7100000000000000000000000000000000000000000000000000000000600052603260045260246000fd5b7f45786365656473207573657220737570706c7920616c6c6f636174696f6e0000600082015250565b6000611991601e83611625565b915061199c8261195b565b602082019050919050565b600060208201905081810360008301526119c081611984565b9050919050565b7f4c616e64506978656c4e6f74417661696c61626c650000000000000000000000600082015250565b60006119fd601583611625565b9150611a08826119c7565b602082019050919050565b60006020820190508181036000830152611a2c816119f0565b9050919050565b7f4c616e64506978656c416c72656164795374616b656400000000000000000000600082015250565b6000611a69601683611625565b9150611a7482611a33565b602082019050919050565b60006020820190508181036000830152611a9881611a5c565b9050919050565b60008115159050919050565b611ab481611a9f565b8114611abf57600080fd5b50565b600081519050611ad181611aab565b92915050565b600060208284031215611aed57611aec611391565b5b6000611afb84828501611ac2565b9150509291505056fea264697066735822122053fe5cccf4adacf838baa8bbbc1bfce94b4761c277f3d5aaab849f505178766d64736f6c634300081b0033",
  "linkReferences": {},
  "deployedLinkReferences": {}
}