{
  "_format": "hh-sol-artifact-1",
  "contractName": "LandBankStakingFacet",
  "sourceName": "contracts/facets/LandBankStakingFacet.sol",
  "abi": [
    {
      "inputs": [],
      "name": "ReentrancyGuardReentrantCall",
      "type": "error"
    },
    {
      "anonymous": false,
      "inputs": [
        {
          "indexed": true,
          "internalType": "address",
          "name": "user",
          "type": "address"
        },
        {
          "indexed": false,
          "internalType": "uint256",
          "name": "amount",
          "type": "uint256"
        }
      ],
      "name": "RewardsClaimed",
      "type": "event"
    },
    {
      "anonymous": false,
      "inputs": [
        {
          "indexed": true,
          "internalType": "address",
          "name": "user",
          "type": "address"
        },
        {
          "indexed": true,
          "internalType": "uint256",
          "name": "tokenId",
          "type": "uint256"
        }
      ],
      "name": "Staked",
      "type": "event"
    },
    {
      "anonymous": false,
      "inputs": [
        {
          "indexed": true,
          "internalType": "address",
          "name": "user",
          "type": "address"
        },
        {
          "indexed": true,
          "internalType": "uint256",
          "name": "tokenId",
          "type": "uint256"
        }
      ],
      "name": "Unstaked",
      "type": "event"
    },
    {
      "inputs": [],
      "name": "PRECISION",
      "outputs": [
        {
          "internalType": "uint256",
          "name": "",
          "type": "uint256"
        }
      ],
      "stateMutability": "view",
      "type": "function"
    },
    {
      "inputs": [],
      "name": "STAKE_REWARD_BASE_DIVISOR",
      "outputs": [
        {
          "internalType": "uint256",
          "name": "",
          "type": "uint256"
        }
      ],
      "stateMutability": "view",
      "type": "function"
    },
    {
      "inputs": [],
      "name": "USER_TOTAL_SUPPLY",
      "outputs": [
        {
          "internalType": "uint256",
          "name": "",
          "type": "uint256"
        }
      ],
      "stateMutability": "view",
      "type": "function"
    },
    {
      "inputs": [],
      "name": "calculateRewardPerBlock",
      "outputs": [
        {
          "internalType": "uint256",
          "name": "",
          "type": "uint256"
        }
      ],
      "stateMutability": "view",
      "type": "function"
    },
    {
      "inputs": [],
      "name": "claimAllRewards",
      "outputs": [],
      "stateMutability": "nonpayable",
      "type": "function"
    },
    {
      "inputs": [
        {
          "internalType": "uint256",
          "name": "tokenId",
          "type": "uint256"
        }
      ],
      "name": "claimRewardForToken",
      "outputs": [],
      "stateMutability": "nonpayable",
      "type": "function"
    },
    {
      "inputs": [
        {
          "internalType": "address",
          "name": "user",
          "type": "address"
        }
      ],
      "name": "getPendingRewards",
      "outputs": [
        {
          "internalType": "uint256",
          "name": "",
          "type": "uint256"
        }
      ],
      "stateMutability": "view",
      "type": "function"
    },
    {
      "inputs": [],
      "name": "getRemainingSupply",
      "outputs": [
        {
          "internalType": "uint256",
          "name": "",
          "type": "uint256"
        }
      ],
      "stateMutability": "view",
      "type": "function"
    },
    {
      "inputs": [
        {
          "internalType": "uint256",
          "name": "tokenId",
          "type": "uint256"
        }
      ],
      "name": "getStakeInfo",
      "outputs": [
        {
          "internalType": "address",
          "name": "owner",
          "type": "address"
        },
        {
          "internalType": "uint256",
          "name": "startBlock",
          "type": "uint256"
        },
        {
          "internalType": "uint256",
          "name": "pendingRewards",
          "type": "uint256"
        }
      ],
      "stateMutability": "view",
      "type": "function"
    },
    {
      "inputs": [],
      "name": "getTotalStaked",
      "outputs": [
        {
          "internalType": "uint256",
          "name": "",
          "type": "uint256"
        }
      ],
      "stateMutability": "view",
      "type": "function"
    },
    {
      "inputs": [
        {
          "internalType": "address",
          "name": "user",
          "type": "address"
        }
      ],
      "name": "getUserStakedTokens",
      "outputs": [
        {
          "internalType": "uint256[]",
          "name": "activeTokens",
          "type": "uint256[]"
        }
      ],
      "stateMutability": "view",
      "type": "function"
    },
    {
      "inputs": [
        {
          "internalType": "address",
          "name": "user",
          "type": "address"
        }
      ],
      "name": "getUserTotalStaked",
      "outputs": [
        {
          "internalType": "uint256",
          "name": "",
          "type": "uint256"
        }
      ],
      "stateMutability": "view",
      "type": "function"
    },
    {
      "inputs": [
        {
          "internalType": "uint256",
          "name": "tokenId",
          "type": "uint256"
        }
      ],
      "name": "stakeLandPixel",
      "outputs": [],
      "stateMutability": "nonpayable",
      "type": "function"
    },
    {
      "inputs": [
        {
          "internalType": "uint256",
          "name": "tokenId",
          "type": "uint256"
        }
      ],
      "name": "unstakeLandPixel",
      "outputs": [],
      "stateMutability": "nonpayable",
      "type": "function"
    }
  ],
  "bytecode": "0x6080604052348015600f57600080fd5b5060016000819055506120d5806100276000396000f3fe608060405234801561001057600080fd5b50600436106100ea5760003560e01c8063617fe0621161008c578063aaf5eb6811610066578063aaf5eb6814610227578063ae1a01a214610245578063e4b7fb7314610275578063f6ed201714610293576100ea565b8063617fe062146101bb5780636e2f1696146101d9578063771b693214610209576100ea565b80630b83a727116100c85780630b83a7271461015d57806328e56163146101675780633d5d35b01461018357806344e1888d1461019f576100ea565b806306fcc72e146100ef5780630917e7761461010d578063098134821461012b575b600080fd5b6100f76102c3565b6040516101049190611903565b60405180910390f35b61011561031d565b6040516101229190611903565b60405180910390f35b6101456004803603810190610140919061194f565b610330565b604051610154939291906119bd565b60405180910390f35b610165610426565b005b610181600480360381019061017c919061194f565b61075f565b005b61019d6004803603810190610198919061194f565b6109e2565b005b6101b960048036038101906101b4919061194f565b610d8b565b005b6101c3611072565b6040516101d09190611903565b60405180910390f35b6101f360048036038101906101ee9190611a20565b61107a565b6040516102009190611903565b60405180910390f35b6102116110d8565b60405161021e9190611903565b60405180910390f35b61022f6110e7565b60405161023c9190611903565b60405180910390f35b61025f600480360381019061025a9190611a20565b6110f3565b60405161026c9190611b0b565b60405180910390f35b61027d6111f1565b60405161028a9190611903565b60405180910390f35b6102ad60048036038101906102a89190611a20565b61121f565b6040516102ba9190611903565b60405180910390f35b6000806102ce61142d565b9050600081600b0154036102e657600091505061031a565b600081600e01546a52b7d2dcc80cd2e40000006103039190611b5c565b90506305f5e100816103159190611bbf565b925050505b90565b600061032761142d565b600b0154905090565b60008060008061033e61142d565b9050600081600901600087815260200190815260200160002090508060000160009054906101000a900473ffffffffffffffffffffffffffffffffffffffff16945080600101549350600082600d0154905082600c0154431180156103a75750600083600b0154115b1561041057600083600c0154436103be9190611b5c565b905060006103ca6102c3565b9050600085600b0154670de0b6b3a764000084846103e89190611bf0565b6103f29190611bf0565b6103fc9190611bbf565b9050808461040a9190611c32565b93505050505b61041a878261145a565b93505050509193909250565b61042e611527565b600061043861142d565b9050600081600a0160003373ffffffffffffffffffffffffffffffffffffffff1673ffffffffffffffffffffffffffffffffffffffff168152602001908152602001600020905061048761156d565b600082600f0160003373ffffffffffffffffffffffffffffffffffffffff1673ffffffffffffffffffffffffffffffffffffffff16815260200190815260200160002054905060006104d88361169a565b905060005b8181101561057a5760006104fa82866116af90919063ffffffff16565b905060008660090160008381526020019081526020016000209050806002015487600d01541115610560576000670de0b6b3a7640000826002015489600d01546105449190611b5c565b61054e9190611bbf565b9050808661055c9190611c32565b9550505b86600d0154816002018190555082600101925050506104dd565b50600082116105be576040517f08c379a00000000000000000000000000000000000000000000000000000000081526004016105b590611cc3565b60405180910390fd5b600084600f0160003373ffffffffffffffffffffffffffffffffffffffff1673ffffffffffffffffffffffffffffffffffffffff168152602001908152602001600020819055508184600e0160008282546106199190611c32565b925050819055506a52b7d2dcc80cd2e400000084600e01541115610672576040517f08c379a000000000000000000000000000000000000000000000000000000000815260040161066990611d2f565b60405180910390fd5b8360010160009054906101000a900473ffffffffffffffffffffffffffffffffffffffff1673ffffffffffffffffffffffffffffffffffffffff166340c10f1933846040518363ffffffff1660e01b81526004016106d1929190611d4f565b600060405180830381600087803b1580156106eb57600080fd5b505af11580156106ff573d6000803e3d6000fd5b505050503373ffffffffffffffffffffffffffffffffffffffff167ffc30cddea38e2bf4d6ea7d3f9ed3b6ad7f176419f4963bd81318067a4aee73fe836040516107499190611903565b60405180910390a25050505061075d6116c9565b565b610767611527565b600061077161142d565b9050600081600901600084815260200190815260200160002090503373ffffffffffffffffffffffffffffffffffffffff168160000160009054906101000a900473ffffffffffffffffffffffffffffffffffffffff1673ffffffffffffffffffffffffffffffffffffffff161461081e576040517f08c379a000000000000000000000000000000000000000000000000000000000815260040161081590611dc4565b60405180910390fd5b61082661156d565b60006108368484600d015461145a565b90506000811161087b576040517f08c379a000000000000000000000000000000000000000000000000000000000815260040161087290611cc3565b60405180910390fd5b82600d015482600201819055508083600e01600082825461089c9190611c32565b925050819055506a52b7d2dcc80cd2e400000083600e015411156108f5576040517f08c379a00000000000000000000000000000000000000000000000000000000081526004016108ec90611d2f565b60405180910390fd5b8260010160009054906101000a900473ffffffffffffffffffffffffffffffffffffffff1673ffffffffffffffffffffffffffffffffffffffff166340c10f1933836040518363ffffffff1660e01b8152600401610954929190611d4f565b600060405180830381600087803b15801561096e57600080fd5b505af1158015610982573d6000803e3d6000fd5b505050503373ffffffffffffffffffffffffffffffffffffffff167ffc30cddea38e2bf4d6ea7d3f9ed3b6ad7f176419f4963bd81318067a4aee73fe826040516109cc9190611903565b60405180910390a25050506109df6116c9565b50565b6109ea611527565b60006109f461142d565b905060008160000160009054906101000a900473ffffffffffffffffffffffffffffffffffffffff1690503373ffffffffffffffffffffffffffffffffffffffff168173ffffffffffffffffffffffffffffffffffffffff16636352211e856040518263ffffffff1660e01b8152600401610a6f9190611903565b602060405180830381865afa158015610a8c573d6000803e3d6000fd5b505050506040513d601f19601f82011682018060405250810190610ab09190611df9565b73ffffffffffffffffffffffffffffffffffffffff1614610b06576040517f08c379a0000000000000000000000000000000000000000000000000000000008152600401610afd90611e72565b60405180910390fd5b600073ffffffffffffffffffffffffffffffffffffffff1682600901600085815260200190815260200160002060000160009054906101000a900473ffffffffffffffffffffffffffffffffffffffff1673ffffffffffffffffffffffffffffffffffffffff1614610bad576040517f08c379a0000000000000000000000000000000000000000000000000000000008152600401610ba490611ede565b60405180910390fd5b610bb561156d565b8073ffffffffffffffffffffffffffffffffffffffff166323b872dd3330866040518463ffffffff1660e01b8152600401610bf293929190611efe565b600060405180830381600087803b158015610c0c57600080fd5b505af1158015610c20573d6000803e3d6000fd5b5050505060405180606001604052803373ffffffffffffffffffffffffffffffffffffffff16815260200143815260200183600d015481525082600901600085815260200190815260200160002060008201518160000160006101000a81548173ffffffffffffffffffffffffffffffffffffffff021916908373ffffffffffffffffffffffffffffffffffffffff1602179055506020820151816001015560408201518160020155905050610d1f8383600a0160003373ffffffffffffffffffffffffffffffffffffffff1673ffffffffffffffffffffffffffffffffffffffff1681526020019081526020016000206116d390919063ffffffff16565b5081600b016000815480929190610d3590611f35565b9190505550823373ffffffffffffffffffffffffffffffffffffffff167f9e71bc8eea02a63969f509818f2dafb9254532904319f9dbda79b67bd34a5f3d60405160405180910390a35050610d886116c9565b50565b610d93611527565b6000610d9d61142d565b9050600081600901600084815260200190815260200160002090503373ffffffffffffffffffffffffffffffffffffffff168160000160009054906101000a900473ffffffffffffffffffffffffffffffffffffffff1673ffffffffffffffffffffffffffffffffffffffff1614610e4a576040517f08c379a0000000000000000000000000000000000000000000000000000000008152600401610e4190611dc4565b60405180910390fd5b610e5261156d565b6000610e628484600d015461145a565b90506000811115610ec6578083600f0160003373ffffffffffffffffffffffffffffffffffffffff1673ffffffffffffffffffffffffffffffffffffffff1681526020019081526020016000206000828254610ebe9190611c32565b925050819055505b60008260020181905550826009016000858152602001908152602001600020600080820160006101000a81549073ffffffffffffffffffffffffffffffffffffffff021916905560018201600090556002820160009055505082600b016000815480929190610f3490611f7d565b9190505550610f8c8484600a0160003373ffffffffffffffffffffffffffffffffffffffff1673ffffffffffffffffffffffffffffffffffffffff1681526020019081526020016000206116ed90919063ffffffff16565b508260000160009054906101000a900473ffffffffffffffffffffffffffffffffffffffff1673ffffffffffffffffffffffffffffffffffffffff166323b872dd3033876040518463ffffffff1660e01b8152600401610fee93929190611efe565b600060405180830381600087803b15801561100857600080fd5b505af115801561101c573d6000803e3d6000fd5b50505050833373ffffffffffffffffffffffffffffffffffffffff167f0f5bb82176feb1b5e747e28471aa92156a04d9f3ab9f45f28e2d704232b93f7560405160405180910390a350505061106f6116c9565b50565b6305f5e10081565b60008061108561142d565b90506110d081600a0160008573ffffffffffffffffffffffffffffffffffffffff1673ffffffffffffffffffffffffffffffffffffffff16815260200190815260200160002061169a565b915050919050565b6a52b7d2dcc80cd2e400000081565b670de0b6b3a764000081565b606060006110ff61142d565b9050600081600a0160008573ffffffffffffffffffffffffffffffffffffffff1673ffffffffffffffffffffffffffffffffffffffff168152602001908152602001600020905060006111518261169a565b90508067ffffffffffffffff81111561116d5761116c611fa6565b5b60405190808252806020026020018201604052801561119b5781602001602082028036833780820191505090505b50935060005b818110156111e8576111bc81846116af90919063ffffffff16565b8582815181106111cf576111ce611fd5565b5b60200260200101818152505080806001019150506111a1565b50505050919050565b6000806111fc61142d565b905080600e01546a52b7d2dcc80cd2e40000006112199190611b5c565b91505090565b60008061122a61142d565b9050600081600a0160008573ffffffffffffffffffffffffffffffffffffffff1673ffffffffffffffffffffffffffffffffffffffff1681526020019081526020016000209050600082600f0160008673ffffffffffffffffffffffffffffffffffffffff1673ffffffffffffffffffffffffffffffffffffffff168152602001908152602001600020549050600083600d0154905083600c0154431180156112d75750600084600b0154115b1561134057600084600c0154436112ee9190611b5c565b905060006112fa6102c3565b9050600086600b0154670de0b6b3a764000084846113189190611bf0565b6113229190611bf0565b61132c9190611bbf565b9050808461133a9190611c32565b93505050505b600061134b8461169a565b905060005b8181101561141f57600061136d82876116af90919063ffffffff16565b9050600087600901600083815260200190815260200160002090508973ffffffffffffffffffffffffffffffffffffffff168160000160009054906101000a900473ffffffffffffffffffffffffffffffffffffffff1673ffffffffffffffffffffffffffffffffffffffff160361141057670de0b6b3a76400008160020154866113f89190611b5c565b6114029190611bbf565b8661140d9190611c32565b95505b50508080600101915050611350565b508295505050505050919050565b6000807fa4e2f18d28b302b06b1e3cb16019cb164aad33e7da557894e1cf0c25324bcdb290508091505090565b60008061146561142d565b905060008160090160008681526020019081526020016000209050600073ffffffffffffffffffffffffffffffffffffffff168160000160009054906101000a900473ffffffffffffffffffffffffffffffffffffffff1673ffffffffffffffffffffffffffffffffffffffff16036114e357600092505050611521565b806002015484116114f957600092505050611521565b670de0b6b3a76400008160020154856115129190611b5c565b61151c9190611bbf565b925050505b92915050565b600260005403611563576040517f3ee5aeb500000000000000000000000000000000000000000000000000000000815260040160405180910390fd5b6002600081905550565b600061157761142d565b905080600c0154431161158a5750611698565b600081600b0154036115a5574381600c018190555050611698565b600081600c0154436115b79190611b5c565b905060006115c36102c3565b9050600083600b0154670de0b6b3a7640000836115e09190611bf0565b6115ea9190611bbf565b9050600083826115fa9190611bf0565b905084600d01547fffffffffffffffffffffffffffffffffffffffffffffffffffffffffffffffff61162c9190611b5c565b81111561166e576040517f08c379a000000000000000000000000000000000000000000000000000000000815260040161166590612050565b60405180910390fd5b8085600d0160008282546116829190611c32565b925050819055504385600c018190555050505050505b565b60006116a882600001611707565b9050919050565b60006116be8360000183611718565b60001c905092915050565b6001600081905550565b60006116e5836000018360001b611743565b905092915050565b60006116ff836000018360001b6117b3565b905092915050565b600081600001805490509050919050565b60008260000182815481106117305761172f611fd5565b5b9060005260206000200154905092915050565b600061174f83836118c7565b6117a85782600001829080600181540180825580915050600190039060005260206000200160009091909190915055826000018054905083600101600084815260200190815260200160002081905550600190506117ad565b600090505b92915050565b600080836001016000848152602001908152602001600020549050600081146118bb5760006001826117e59190611b5c565b90506000600186600001805490506117fd9190611b5c565b905080821461186c57600086600001828154811061181e5761181d611fd5565b5b906000526020600020015490508087600001848154811061184257611841611fd5565b5b90600052602060002001819055508387600101600083815260200190815260200160002081905550505b856000018054806118805761187f612070565b5b6001900381819060005260206000200160009055905585600101600086815260200190815260200160002060009055600193505050506118c1565b60009150505b92915050565b600080836001016000848152602001908152602001600020541415905092915050565b6000819050919050565b6118fd816118ea565b82525050565b600060208201905061191860008301846118f4565b92915050565b600080fd5b61192c816118ea565b811461193757600080fd5b50565b60008135905061194981611923565b92915050565b6000602082840312156119655761196461191e565b5b60006119738482850161193a565b91505092915050565b600073ffffffffffffffffffffffffffffffffffffffff82169050919050565b60006119a78261197c565b9050919050565b6119b78161199c565b82525050565b60006060820190506119d260008301866119ae565b6119df60208301856118f4565b6119ec60408301846118f4565b949350505050565b6119fd8161199c565b8114611a0857600080fd5b50565b600081359050611a1a816119f4565b92915050565b600060208284031215611a3657611a3561191e565b5b6000611a4484828501611a0b565b91505092915050565b600081519050919050565b600082825260208201905092915050565b6000819050602082019050919050565b611a82816118ea565b82525050565b6000611a948383611a79565b60208301905092915050565b6000602082019050919050565b6000611ab882611a4d565b611ac28185611a58565b9350611acd83611a69565b8060005b83811015611afe578151611ae58882611a88565b9750611af083611aa0565b925050600181019050611ad1565b5085935050505092915050565b60006020820190508181036000830152611b258184611aad565b905092915050565b7f4e487b7100000000000000000000000000000000000000000000000000000000600052601160045260246000fd5b6000611b67826118ea565b9150611b72836118ea565b9250828203905081811115611b8a57611b89611b2d565b5b92915050565b7f4e487b7100000000000000000000000000000000000000000000000000000000600052601260045260246000fd5b6000611bca826118ea565b9150611bd5836118ea565b925082611be557611be4611b90565b5b828204905092915050565b6000611bfb826118ea565b9150611c06836118ea565b9250828202611c14816118ea565b91508282048414831517611c2b57611c2a611b2d565b5b5092915050565b6000611c3d826118ea565b9150611c48836118ea565b9250828201905080821115611c6057611c5f611b2d565b5b92915050565b600082825260208201905092915050565b7f4e6f207265776172647320746f20636c61696d00000000000000000000000000600082015250565b6000611cad601383611c66565b9150611cb882611c77565b602082019050919050565b60006020820190508181036000830152611cdc81611ca0565b9050919050565b7f45786365656473207374616b696e6720616c6c6f636174696f6e000000000000600082015250565b6000611d19601a83611c66565b9150611d2482611ce3565b602082019050919050565b60006020820190508181036000830152611d4881611d0c565b9050919050565b6000604082019050611d6460008301856119ae565b611d7160208301846118f4565b9392505050565b7f4e6f74207374616b65206f776e65720000000000000000000000000000000000600082015250565b6000611dae600f83611c66565b9150611db982611d78565b602082019050919050565b60006020820190508181036000830152611ddd81611da1565b9050919050565b600081519050611df3816119f4565b92915050565b600060208284031215611e0f57611e0e61191e565b5b6000611e1d84828501611de4565b91505092915050565b7f4e6f7420746f6b656e206f776e65720000000000000000000000000000000000600082015250565b6000611e5c600f83611c66565b9150611e6782611e26565b602082019050919050565b60006020820190508181036000830152611e8b81611e4f565b9050919050565b7f416c7265616479207374616b6564000000000000000000000000000000000000600082015250565b6000611ec8600e83611c66565b9150611ed382611e92565b602082019050919050565b60006020820190508181036000830152611ef781611ebb565b9050919050565b6000606082019050611f1360008301866119ae565b611f2060208301856119ae565b611f2d60408301846118f4565b949350505050565b6000611f40826118ea565b91507fffffffffffffffffffffffffffffffffffffffffffffffffffffffffffffffff8203611f7257611f71611b2d565b5b600182019050919050565b6000611f88826118ea565b915060008203611f9b57611f9a611b2d565b5b600182039050919050565b7f4e487b7100000000000000000000000000000000000000000000000000000000600052604160045260246000fd5b7f4e487b7100000000000000000000000000000000000000000000000000000000600052603260045260246000fd5b7f416363756d756c617465642072657761726473206f766572666c6f7700000000600082015250565b600061203a601c83611c66565b915061204582612004565b602082019050919050565b600060208201905081810360008301526120698161202d565b9050919050565b7f4e487b7100000000000000000000000000000000000000000000000000000000600052603160045260246000fdfea26469706673582212201f799e825228b44dd8214188d94333a53ee23abbe9d83c35f9be6b50716f1ffd64736f6c634300081b0033",
  "linkReferences": {},
  "deployedLinkReferences": {}
}