{
  "_format": "hh-sol-artifact-1",
  "contractName": "LandPixel",
  "sourceName": "contracts/LandPixelNFT.sol",
  "abi": [
    {
      "inputs": [
        {
          "internalType": "address",
          "name": "initialOwner",
          "type": "address"
        }
      ],
      "stateMutability": "nonpayable",
      "type": "constructor"
    },
    {
      "inputs": [],
      "name": "ERC721EnumerableForbiddenBatchMint",
      "type": "error"
    },
    {
      "inputs": [
        {
          "internalType": "address",
          "name": "sender",
          "type": "address"
        },
        {
          "internalType": "uint256",
          "name": "tokenId",
          "type": "uint256"
        },
        {
          "internalType": "address",
          "name": "owner",
          "type": "address"
        }
      ],
      "name": "ERC721IncorrectOwner",
      "type": "error"
    },
    {
      "inputs": [
        {
          "internalType": "address",
          "name": "operator",
          "type": "address"
        },
        {
          "internalType": "uint256",
          "name": "tokenId",
          "type": "uint256"
        }
      ],
      "name": "ERC721InsufficientApproval",
      "type": "error"
    },
    {
      "inputs": [
        {
          "internalType": "address",
          "name": "approver",
          "type": "address"
        }
      ],
      "name": "ERC721InvalidApprover",
      "type": "error"
    },
    {
      "inputs": [
        {
          "internalType": "address",
          "name": "operator",
          "type": "address"
        }
      ],
      "name": "ERC721InvalidOperator",
      "type": "error"
    },
    {
      "inputs": [
        {
          "internalType": "address",
          "name": "owner",
          "type": "address"
        }
      ],
      "name": "ERC721InvalidOwner",
      "type": "error"
    },
    {
      "inputs": [
        {
          "internalType": "address",
          "name": "receiver",
          "type": "address"
        }
      ],
      "name": "ERC721InvalidReceiver",
      "type": "error"
    },
    {
      "inputs": [
        {
          "internalType": "address",
          "name": "sender",
          "type": "address"
        }
      ],
      "name": "ERC721InvalidSender",
      "type": "error"
    },
    {
      "inputs": [
        {
          "internalType": "uint256",
          "name": "tokenId",
          "type": "uint256"
        }
      ],
      "name": "ERC721NonexistentToken",
      "type": "error"
    },
    {
      "inputs": [
        {
          "internalType": "address",
          "name": "owner",
          "type": "address"
        },
        {
          "internalType": "uint256",
          "name": "index",
          "type": "uint256"
        }
      ],
      "name": "ERC721OutOfBoundsIndex",
      "type": "error"
    },
    {
      "inputs": [
        {
          "internalType": "address",
          "name": "owner",
          "type": "address"
        }
      ],
      "name": "OwnableInvalidOwner",
      "type": "error"
    },
    {
      "inputs": [
        {
          "internalType": "address",
          "name": "account",
          "type": "address"
        }
      ],
      "name": "OwnableUnauthorizedAccount",
      "type": "error"
    },
    {
      "anonymous": false,
      "inputs": [
        {
          "indexed": true,
          "internalType": "address",
          "name": "owner",
          "type": "address"
        },
        {
          "indexed": true,
          "internalType": "address",
          "name": "approved",
          "type": "address"
        },
        {
          "indexed": true,
          "internalType": "uint256",
          "name": "tokenId",
          "type": "uint256"
        }
      ],
      "name": "Approval",
      "type": "event"
    },
    {
      "anonymous": false,
      "inputs": [
        {
          "indexed": true,
          "internalType": "address",
          "name": "owner",
          "type": "address"
        },
        {
          "indexed": true,
          "internalType": "address",
          "name": "operator",
          "type": "address"
        },
        {
          "indexed": false,
          "internalType": "bool",
          "name": "approved",
          "type": "bool"
        }
      ],
      "name": "ApprovalForAll",
      "type": "event"
    },
    {
      "anonymous": false,
      "inputs": [
        {
          "indexed": true,
          "internalType": "address",
          "name": "previousOwner",
          "type": "address"
        },
        {
          "indexed": true,
          "internalType": "address",
          "name": "newOwner",
          "type": "address"
        }
      ],
      "name": "OwnershipTransferred",
      "type": "event"
    },
    {
      "anonymous": false,
      "inputs": [
        {
          "indexed": true,
          "internalType": "address",
          "name": "from",
          "type": "address"
        },
        {
          "indexed": true,
          "internalType": "address",
          "name": "to",
          "type": "address"
        },
        {
          "indexed": true,
          "internalType": "uint256",
          "name": "tokenId",
          "type": "uint256"
        }
      ],
      "name": "Transfer",
      "type": "event"
    },
    {
      "inputs": [
        {
          "internalType": "address",
          "name": "to",
          "type": "address"
        },
        {
          "internalType": "uint256",
          "name": "tokenId",
          "type": "uint256"
        }
      ],
      "name": "approve",
      "outputs": [],
      "stateMutability": "nonpayable",
      "type": "function"
    },
    {
      "inputs": [
        {
          "internalType": "address",
          "name": "owner",
          "type": "address"
        }
      ],
      "name": "balanceOf",
      "outputs": [
        {
          "internalType": "uint256",
          "name": "",
          "type": "uint256"
        }
      ],
      "stateMutability": "view",
      "type": "function"
    },
    {
      "inputs": [
        {
          "internalType": "uint256",
          "name": "tokenId",
          "type": "uint256"
        }
      ],
      "name": "exists",
      "outputs": [
        {
          "internalType": "bool",
          "name": "",
          "type": "bool"
        }
      ],
      "stateMutability": "view",
      "type": "function"
    },
    {
      "inputs": [
        {
          "internalType": "uint256",
          "name": "tokenId",
          "type": "uint256"
        }
      ],
      "name": "getApproved",
      "outputs": [
        {
          "internalType": "address",
          "name": "",
          "type": "address"
        }
      ],
      "stateMutability": "view",
      "type": "function"
    },
    {
      "inputs": [
        {
          "internalType": "address",
          "name": "owner",
          "type": "address"
        },
        {
          "internalType": "address",
          "name": "operator",
          "type": "address"
        }
      ],
      "name": "isApprovedForAll",
      "outputs": [
        {
          "internalType": "bool",
          "name": "",
          "type": "bool"
        }
      ],
      "stateMutability": "view",
      "type": "function"
    },
    {
      "inputs": [],
      "name": "name",
      "outputs": [
        {
          "internalType": "string",
          "name": "",
          "type": "string"
        }
      ],
      "stateMutability": "view",
      "type": "function"
    },
    {
      "inputs": [],
      "name": "owner",
      "outputs": [
        {
          "internalType": "address",
          "name": "",
          "type": "address"
        }
      ],
      "stateMutability": "view",
      "type": "function"
    },
    {
      "inputs": [
        {
          "internalType": "uint256",
          "name": "tokenId",
          "type": "uint256"
        }
      ],
      "name": "ownerOf",
      "outputs": [
        {
          "internalType": "address",
          "name": "",
          "type": "address"
        }
      ],
      "stateMutability": "view",
      "type": "function"
    },
    {
      "inputs": [],
      "name": "renounceOwnership",
      "outputs": [],
      "stateMutability": "nonpayable",
      "type": "function"
    },
    {
      "inputs": [
        {
          "internalType": "address",
          "name": "to",
          "type": "address"
        },
        {
          "internalType": "uint256",
          "name": "tokenId",
          "type": "uint256"
        }
      ],
      "name": "safeMint",
      "outputs": [],
      "stateMutability": "nonpayable",
      "type": "function"
    },
    {
      "inputs": [
        {
          "internalType": "address",
          "name": "from",
          "type": "address"
        },
        {
          "internalType": "address",
          "name": "to",
          "type": "address"
        },
        {
          "internalType": "uint256",
          "name": "tokenId",
          "type": "uint256"
        }
      ],
      "name": "safeTransferFrom",
      "outputs": [],
      "stateMutability": "nonpayable",
      "type": "function"
    },
    {
      "inputs": [
        {
          "internalType": "address",
          "name": "from",
          "type": "address"
        },
        {
          "internalType": "address",
          "name": "to",
          "type": "address"
        },
        {
          "internalType": "uint256",
          "name": "tokenId",
          "type": "uint256"
        },
        {
          "internalType": "bytes",
          "name": "data",
          "type": "bytes"
        }
      ],
      "name": "safeTransferFrom",
      "outputs": [],
      "stateMutability": "nonpayable",
      "type": "function"
    },
    {
      "inputs": [
        {
          "internalType": "address",
          "name": "operator",
          "type": "address"
        },
        {
          "internalType": "bool",
          "name": "approved",
          "type": "bool"
        }
      ],
      "name": "setApprovalForAll",
      "outputs": [],
      "stateMutability": "nonpayable",
      "type": "function"
    },
    {
      "inputs": [
        {
          "internalType": "string",
          "name": "newBaseURI",
          "type": "string"
        }
      ],
      "name": "setBaseURI",
      "outputs": [],
      "stateMutability": "nonpayable",
      "type": "function"
    },
    {
      "inputs": [
        {
          "internalType": "bytes4",
          "name": "interfaceId",
          "type": "bytes4"
        }
      ],
      "name": "supportsInterface",
      "outputs": [
        {
          "internalType": "bool",
          "name": "",
          "type": "bool"
        }
      ],
      "stateMutability": "view",
      "type": "function"
    },
    {
      "inputs": [],
      "name": "symbol",
      "outputs": [
        {
          "internalType": "string",
          "name": "",
          "type": "string"
        }
      ],
      "stateMutability": "view",
      "type": "function"
    },
    {
      "inputs": [
        {
          "internalType": "uint256",
          "name": "index",
          "type": "uint256"
        }
      ],
      "name": "tokenByIndex",
      "outputs": [
        {
          "internalType": "uint256",
          "name": "",
          "type": "uint256"
        }
      ],
      "stateMutability": "view",
      "type": "function"
    },
    {
      "inputs": [
        {
          "internalType": "address",
          "name": "owner",
          "type": "address"
        },
        {
          "internalType": "uint256",
          "name": "index",
          "type": "uint256"
        }
      ],
      "name": "tokenOfOwnerByIndex",
      "outputs": [
        {
          "internalType": "uint256",
          "name": "",
          "type": "uint256"
        }
      ],
      "stateMutability": "view",
      "type": "function"
    },
    {
      "inputs": [
        {
          "internalType": "uint256",
          "name": "tokenId",
          "type": "uint256"
        }
      ],
      "name": "tokenURI",
      "outputs": [
        {
          "internalType": "string",
          "name": "",
          "type": "string"
        }
      ],
      "stateMutability": "view",
      "type": "function"
    },
    {
      "inputs": [],
      "name": "totalSupply",
      "outputs": [
        {
          "internalType": "uint256",
          "name": "",
          "type": "uint256"
        }
      ],
      "stateMutability": "view",
      "type": "function"
    },
    {
      "inputs": [
        {
          "internalType": "address",
          "name": "from",
          "type": "address"
        },
        {
          "internalType": "address",
          "name": "to",
          "type": "address"
        },
        {
          "internalType": "uint256",
          "name": "tokenId",
          "type": "uint256"
        }
      ],
      "name": "transferFrom",
      "outputs": [],
      "stateMutability": "nonpayable",
      "type": "function"
    },
    {
      "inputs": [
        {
          "internalType": "address",
          "name": "newOwner",
          "type": "address"
        }
      ],
      "name": "transferOwnership",
      "outputs": [],
      "stateMutability": "nonpayable",
      "type": "function"
    }
  ],
  "bytecode": "0x608060405234801561001057600080fd5b50604051613237380380613237833981810160405281019061003291906102b7565b806040518060400160405280600981526020017f4c616e64506978656c00000000000000000000000000000000000000000000008152506040518060400160405280600481526020017f4c50584c0000000000000000000000000000000000000000000000000000000081525081600090816100ae9190610534565b5080600190816100be9190610534565b505050600073ffffffffffffffffffffffffffffffffffffffff168173ffffffffffffffffffffffffffffffffffffffff16036101335760006040517f1e4fbdf700000000000000000000000000000000000000000000000000000000815260040161012a9190610615565b60405180910390fd5b6101428161018e60201b60201c565b506040518060400160405280602081526020017f68747470733a2f2f6469737472696374732e78797a2f6c616e64706978656c2f815250600b90816101879190610534565b5050610630565b6000600a60009054906101000a900473ffffffffffffffffffffffffffffffffffffffff16905081600a60006101000a81548173ffffffffffffffffffffffffffffffffffffffff021916908373ffffffffffffffffffffffffffffffffffffffff1602179055508173ffffffffffffffffffffffffffffffffffffffff168173ffffffffffffffffffffffffffffffffffffffff167f8be0079c531659141344cd1fd0a4f28419497f9722a3daafe3b4186f6b6457e060405160405180910390a35050565b600080fd5b600073ffffffffffffffffffffffffffffffffffffffff82169050919050565b600061028482610259565b9050919050565b61029481610279565b811461029f57600080fd5b50565b6000815190506102b18161028b565b92915050565b6000602082840312156102cd576102cc610254565b5b60006102db848285016102a2565b91505092915050565b600081519050919050565b7f4e487b7100000000000000000000000000000000000000000000000000000000600052604160045260246000fd5b7f4e487b7100000000000000000000000000000000000000000000000000000000600052602260045260246000fd5b6000600282049050600182168061036557607f821691505b6020821081036103785761037761031e565b5b50919050565b60008190508160005260206000209050919050565b60006020601f8301049050919050565b600082821b905092915050565b6000600883026103e07fffffffffffffffffffffffffffffffffffffffffffffffffffffffffffffffff826103a3565b6103ea86836103a3565b95508019841693508086168417925050509392505050565b6000819050919050565b6000819050919050565b600061043161042c61042784610402565b61040c565b610402565b9050919050565b6000819050919050565b61044b83610416565b61045f61045782610438565b8484546103b0565b825550505050565b600090565b610474610467565b61047f818484610442565b505050565b5b818110156104a35761049860008261046c565b600181019050610485565b5050565b601f8211156104e8576104b98161037e565b6104c284610393565b810160208510156104d1578190505b6104e56104dd85610393565b830182610484565b50505b505050565b600082821c905092915050565b600061050b600019846008026104ed565b1980831691505092915050565b600061052483836104fa565b9150826002028217905092915050565b61053d826102e4565b67ffffffffffffffff811115610556576105556102ef565b5b610560825461034d565b61056b8282856104a7565b600060209050601f83116001811461059e576000841561058c578287015190505b6105968582610518565b8655506105fe565b601f1984166105ac8661037e565b60005b828110156105d4578489015182556001820191506020850194506020810190506105af565b868310156105f157848901516105ed601f8916826104fa565b8355505b6001600288020188555050505b505050505050565b61060f81610279565b82525050565b600060208201905061062a6000830184610606565b92915050565b612bf88061063f6000396000f3fe608060405234801561001057600080fd5b50600436106101425760003560e01c80636352211e116100b8578063a14481941161007c578063a144819414610389578063a22cb465146103a5578063b88d4fde146103c1578063c87b56dd146103dd578063e985e9c51461040d578063f2fde38b1461043d57610142565b80636352211e146102e357806370a0823114610313578063715018a6146103435780638da5cb5b1461034d57806395d89b411461036b57610142565b806323b872dd1161010a57806323b872dd146101ff5780632f745c591461021b57806342842e0e1461024b5780634f558e79146102675780634f6ccce71461029757806355f804b3146102c757610142565b806301ffc9a71461014757806306fdde0314610177578063081812fc14610195578063095ea7b3146101c557806318160ddd146101e1575b600080fd5b610161600480360381019061015c9190612019565b610459565b60405161016e9190612061565b60405180910390f35b61017f61046b565b60405161018c919061210c565b60405180910390f35b6101af60048036038101906101aa9190612164565b6104fd565b6040516101bc91906121d2565b60405180910390f35b6101df60048036038101906101da9190612219565b610519565b005b6101e961052f565b6040516101f69190612268565b60405180910390f35b61021960048036038101906102149190612283565b61053c565b005b61023560048036038101906102309190612219565b61063e565b6040516102429190612268565b60405180910390f35b61026560048036038101906102609190612283565b6106e7565b005b610281600480360381019061027c9190612164565b610707565b60405161028e9190612061565b60405180910390f35b6102b160048036038101906102ac9190612164565b610748565b6040516102be9190612268565b60405180910390f35b6102e160048036038101906102dc919061240b565b6107be565b005b6102fd60048036038101906102f89190612164565b6107d9565b60405161030a91906121d2565b60405180910390f35b61032d60048036038101906103289190612454565b6107eb565b60405161033a9190612268565b60405180910390f35b61034b6108a5565b005b6103556108b9565b60405161036291906121d2565b60405180910390f35b6103736108e3565b604051610380919061210c565b60405180910390f35b6103a3600480360381019061039e9190612219565b610975565b005b6103bf60048036038101906103ba91906124ad565b61098b565b005b6103db60048036038101906103d6919061258e565b6109a1565b005b6103f760048036038101906103f29190612164565b6109c6565b604051610404919061210c565b60405180910390f35b61042760048036038101906104229190612611565b610a2f565b6040516104349190612061565b60405180910390f35b61045760048036038101906104529190612454565b610ac3565b005b600061046482610b49565b9050919050565b60606000805461047a90612680565b80601f01602080910402602001604051908101604052809291908181526020018280546104a690612680565b80156104f35780601f106104c8576101008083540402835291602001916104f3565b820191906000526020600020905b8154815290600101906020018083116104d657829003601f168201915b5050505050905090565b600061050882610bc3565b5061051282610c4b565b9050919050565b61052b8282610526610c88565b610c90565b5050565b6000600880549050905090565b600073ffffffffffffffffffffffffffffffffffffffff168273ffffffffffffffffffffffffffffffffffffffff16036105ae5760006040517f64a0ae920000000000000000000000000000000000000000000000000000000081526004016105a591906121d2565b60405180910390fd5b60006105c283836105bd610c88565b610ca2565b90508373ffffffffffffffffffffffffffffffffffffffff168173ffffffffffffffffffffffffffffffffffffffff1614610638578382826040517f64283d7b00000000000000000000000000000000000000000000000000000000815260040161062f939291906126b1565b60405180910390fd5b50505050565b6000610649836107eb565b821061068e5782826040517fa57d13dc0000000000000000000000000000000000000000000000000000000081526004016106859291906126e8565b60405180910390fd5b600660008473ffffffffffffffffffffffffffffffffffffffff1673ffffffffffffffffffffffffffffffffffffffff168152602001908152602001600020600083815260200190815260200160002054905092915050565b610702838383604051806020016040528060008152506109a1565b505050565b60008073ffffffffffffffffffffffffffffffffffffffff1661072983610cb8565b73ffffffffffffffffffffffffffffffffffffffff1614159050919050565b600061075261052f565b8210610798576000826040517fa57d13dc00000000000000000000000000000000000000000000000000000000815260040161078f9291906126e8565b60405180910390fd5b600882815481106107ac576107ab612711565b5b90600052602060002001549050919050565b6107c6610cf5565b80600b90816107d591906128ec565b5050565b60006107e482610bc3565b9050919050565b60008073ffffffffffffffffffffffffffffffffffffffff168273ffffffffffffffffffffffffffffffffffffffff160361085e5760006040517f89c62b6400000000000000000000000000000000000000000000000000000000815260040161085591906121d2565b60405180910390fd5b600360008373ffffffffffffffffffffffffffffffffffffffff1673ffffffffffffffffffffffffffffffffffffffff168152602001908152602001600020549050919050565b6108ad610cf5565b6108b76000610d7c565b565b6000600a60009054906101000a900473ffffffffffffffffffffffffffffffffffffffff16905090565b6060600180546108f290612680565b80601f016020809104026020016040519081016040528092919081815260200182805461091e90612680565b801561096b5780601f106109405761010080835404028352916020019161096b565b820191906000526020600020905b81548152906001019060200180831161094e57829003601f168201915b5050505050905090565b61097d610cf5565b6109878282610e42565b5050565b61099d610996610c88565b8383610e60565b5050565b6109ac84848461053c565b6109c06109b7610c88565b85858585610fcf565b50505050565b60606109d182610bc3565b5060006109dc611180565b905060008151116109fc5760405180602001604052806000815250610a27565b80610a0684611212565b604051602001610a179291906129fa565b6040516020818303038152906040525b915050919050565b6000600560008473ffffffffffffffffffffffffffffffffffffffff1673ffffffffffffffffffffffffffffffffffffffff16815260200190815260200160002060008373ffffffffffffffffffffffffffffffffffffffff1673ffffffffffffffffffffffffffffffffffffffff16815260200190815260200160002060009054906101000a900460ff16905092915050565b610acb610cf5565b600073ffffffffffffffffffffffffffffffffffffffff168173ffffffffffffffffffffffffffffffffffffffff1603610b3d5760006040517f1e4fbdf7000000000000000000000000000000000000000000000000000000008152600401610b3491906121d2565b60405180910390fd5b610b4681610d7c565b50565b60007f780e9d63000000000000000000000000000000000000000000000000000000007bffffffffffffffffffffffffffffffffffffffffffffffffffffffff1916827bffffffffffffffffffffffffffffffffffffffffffffffffffffffff19161480610bbc5750610bbb826112e0565b5b9050919050565b600080610bcf83610cb8565b9050600073ffffffffffffffffffffffffffffffffffffffff168173ffffffffffffffffffffffffffffffffffffffff1603610c4257826040517f7e273289000000000000000000000000000000000000000000000000000000008152600401610c399190612268565b60405180910390fd5b80915050919050565b60006004600083815260200190815260200160002060009054906101000a900473ffffffffffffffffffffffffffffffffffffffff169050919050565b600033905090565b610c9d83838360016113c2565b505050565b6000610caf848484611587565b90509392505050565b60006002600083815260200190815260200160002060009054906101000a900473ffffffffffffffffffffffffffffffffffffffff169050919050565b610cfd610c88565b73ffffffffffffffffffffffffffffffffffffffff16610d1b6108b9565b73ffffffffffffffffffffffffffffffffffffffff1614610d7a57610d3e610c88565b6040517f118cdaa7000000000000000000000000000000000000000000000000000000008152600401610d7191906121d2565b60405180910390fd5b565b6000600a60009054906101000a900473ffffffffffffffffffffffffffffffffffffffff16905081600a60006101000a81548173ffffffffffffffffffffffffffffffffffffffff021916908373ffffffffffffffffffffffffffffffffffffffff1602179055508173ffffffffffffffffffffffffffffffffffffffff168173ffffffffffffffffffffffffffffffffffffffff167f8be0079c531659141344cd1fd0a4f28419497f9722a3daafe3b4186f6b6457e060405160405180910390a35050565b610e5c8282604051806020016040528060008152506116a4565b5050565b600073ffffffffffffffffffffffffffffffffffffffff168273ffffffffffffffffffffffffffffffffffffffff1603610ed157816040517f5b08ba18000000000000000000000000000000000000000000000000000000008152600401610ec891906121d2565b60405180910390fd5b80600560008573ffffffffffffffffffffffffffffffffffffffff1673ffffffffffffffffffffffffffffffffffffffff16815260200190815260200160002060008473ffffffffffffffffffffffffffffffffffffffff1673ffffffffffffffffffffffffffffffffffffffff16815260200190815260200160002060006101000a81548160ff0219169083151502179055508173ffffffffffffffffffffffffffffffffffffffff168373ffffffffffffffffffffffffffffffffffffffff167f17307eab39ab6107e8899845ad3d59bd9653f200f220920489ca2b5937696c3183604051610fc29190612061565b60405180910390a3505050565b60008373ffffffffffffffffffffffffffffffffffffffff163b1115611179578273ffffffffffffffffffffffffffffffffffffffff1663150b7a02868685856040518563ffffffff1660e01b815260040161102e9493929190612a73565b6020604051808303816000875af192505050801561106a57506040513d601f19601f820116820180604052508101906110679190612ad4565b60015b6110ee573d806000811461109a576040519150601f19603f3d011682016040523d82523d6000602084013e61109f565b606091505b5060008151036110e657836040517f64a0ae920000000000000000000000000000000000000000000000000000000081526004016110dd91906121d2565b60405180910390fd5b805181602001fd5b63150b7a0260e01b7bffffffffffffffffffffffffffffffffffffffffffffffffffffffff1916817bffffffffffffffffffffffffffffffffffffffffffffffffffffffff19161461117757836040517f64a0ae9200000000000000000000000000000000000000000000000000000000815260040161116e91906121d2565b60405180910390fd5b505b5050505050565b6060600b805461118f90612680565b80601f01602080910402602001604051908101604052809291908181526020018280546111bb90612680565b80156112085780601f106111dd57610100808354040283529160200191611208565b820191906000526020600020905b8154815290600101906020018083116111eb57829003601f168201915b5050505050905090565b606060006001611221846116c8565b01905060008167ffffffffffffffff8111156112405761123f6122e0565b5b6040519080825280601f01601f1916602001820160405280156112725781602001600182028036833780820191505090505b509050600082602001820190505b6001156112d5578080600190039150507f3031323334353637383961626364656600000000000000000000000000000000600a86061a8153600a85816112c9576112c8612b01565b5b04945060008503611280575b819350505050919050565b60007f80ac58cd000000000000000000000000000000000000000000000000000000007bffffffffffffffffffffffffffffffffffffffffffffffffffffffff1916827bffffffffffffffffffffffffffffffffffffffffffffffffffffffff191614806113ab57507f5b5e139f000000000000000000000000000000000000000000000000000000007bffffffffffffffffffffffffffffffffffffffffffffffffffffffff1916827bffffffffffffffffffffffffffffffffffffffffffffffffffffffff1916145b806113bb57506113ba8261181b565b5b9050919050565b80806113fb5750600073ffffffffffffffffffffffffffffffffffffffff168273ffffffffffffffffffffffffffffffffffffffff1614155b1561152f57600061140b84610bc3565b9050600073ffffffffffffffffffffffffffffffffffffffff168373ffffffffffffffffffffffffffffffffffffffff161415801561147657508273ffffffffffffffffffffffffffffffffffffffff168173ffffffffffffffffffffffffffffffffffffffff1614155b801561148957506114878184610a2f565b155b156114cb57826040517fa9fbf51f0000000000000000000000000000000000000000000000000000000081526004016114c291906121d2565b60405180910390fd5b811561152d57838573ffffffffffffffffffffffffffffffffffffffff168273ffffffffffffffffffffffffffffffffffffffff167f8c5be1e5ebec7d5bd14f71427d1e84f3dd0314c0f7b2291e5b200ac8c7c3b92560405160405180910390a45b505b836004600085815260200190815260200160002060006101000a81548173ffffffffffffffffffffffffffffffffffffffff021916908373ffffffffffffffffffffffffffffffffffffffff16021790555050505050565b600080611595858585611885565b9050600073ffffffffffffffffffffffffffffffffffffffff168173ffffffffffffffffffffffffffffffffffffffff16036115d9576115d484611a9f565b611618565b8473ffffffffffffffffffffffffffffffffffffffff168173ffffffffffffffffffffffffffffffffffffffff1614611617576116168185611ae8565b5b5b600073ffffffffffffffffffffffffffffffffffffffff168573ffffffffffffffffffffffffffffffffffffffff160361165a5761165584611bd3565b611699565b8473ffffffffffffffffffffffffffffffffffffffff168173ffffffffffffffffffffffffffffffffffffffff1614611698576116978585611ca4565b5b5b809150509392505050565b6116ae8383611d2f565b6116c36116b9610c88565b6000858585610fcf565b505050565b600080600090507a184f03e93ff9f4daa797ed6e38ed64bf6a1f0100000000000000008310611726577a184f03e93ff9f4daa797ed6e38ed64bf6a1f010000000000000000838161171c5761171b612b01565b5b0492506040810190505b6d04ee2d6d415b85acef81000000008310611763576d04ee2d6d415b85acef8100000000838161175957611758612b01565b5b0492506020810190505b662386f26fc10000831061179257662386f26fc10000838161178857611787612b01565b5b0492506010810190505b6305f5e10083106117bb576305f5e10083816117b1576117b0612b01565b5b0492506008810190505b61271083106117e05761271083816117d6576117d5612b01565b5b0492506004810190505b6064831061180357606483816117f9576117f8612b01565b5b0492506002810190505b600a8310611812576001810190505b80915050919050565b60007f01ffc9a7000000000000000000000000000000000000000000000000000000007bffffffffffffffffffffffffffffffffffffffffffffffffffffffff1916827bffffffffffffffffffffffffffffffffffffffffffffffffffffffff1916149050919050565b60008061189184610cb8565b9050600073ffffffffffffffffffffffffffffffffffffffff168373ffffffffffffffffffffffffffffffffffffffff16146118d3576118d2818486611e28565b5b600073ffffffffffffffffffffffffffffffffffffffff168173ffffffffffffffffffffffffffffffffffffffff1614611964576119156000856000806113c2565b6001600360008373ffffffffffffffffffffffffffffffffffffffff1673ffffffffffffffffffffffffffffffffffffffff168152602001908152602001600020600082825403925050819055505b600073ffffffffffffffffffffffffffffffffffffffff168573ffffffffffffffffffffffffffffffffffffffff16146119e7576001600360008773ffffffffffffffffffffffffffffffffffffffff1673ffffffffffffffffffffffffffffffffffffffff168152602001908152602001600020600082825401925050819055505b846002600086815260200190815260200160002060006101000a81548173ffffffffffffffffffffffffffffffffffffffff021916908373ffffffffffffffffffffffffffffffffffffffff160217905550838573ffffffffffffffffffffffffffffffffffffffff168273ffffffffffffffffffffffffffffffffffffffff167fddf252ad1be2c89b69c2b068fc378daa952ba7f163c4a11628f55a4df523b3ef60405160405180910390a4809150509392505050565b6008805490506009600083815260200190815260200160002081905550600881908060018154018082558091505060019003906000526020600020016000909190919091505550565b6000611af3836107eb565b90506000600760008481526020019081526020016000205490506000600660008673ffffffffffffffffffffffffffffffffffffffff1673ffffffffffffffffffffffffffffffffffffffff1681526020019081526020016000209050828214611b9f5760008160008581526020019081526020016000205490508082600085815260200190815260200160002081905550826007600083815260200190815260200160002081905550505b6007600085815260200190815260200160002060009055806000848152602001908152602001600020600090555050505050565b60006001600880549050611be79190612b5f565b9050600060096000848152602001908152602001600020549050600060088381548110611c1757611c16612711565b5b906000526020600020015490508060088381548110611c3957611c38612711565b5b906000526020600020018190555081600960008381526020019081526020016000208190555060096000858152602001908152602001600020600090556008805480611c8857611c87612b93565b5b6001900381819060005260206000200160009055905550505050565b60006001611cb1846107eb565b611cbb9190612b5f565b905081600660008573ffffffffffffffffffffffffffffffffffffffff1673ffffffffffffffffffffffffffffffffffffffff168152602001908152602001600020600083815260200190815260200160002081905550806007600084815260200190815260200160002081905550505050565b600073ffffffffffffffffffffffffffffffffffffffff168273ffffffffffffffffffffffffffffffffffffffff1603611da15760006040517f64a0ae92000000000000000000000000000000000000000000000000000000008152600401611d9891906121d2565b60405180910390fd5b6000611daf83836000610ca2565b9050600073ffffffffffffffffffffffffffffffffffffffff168173ffffffffffffffffffffffffffffffffffffffff1614611e235760006040517f73c6ac6e000000000000000000000000000000000000000000000000000000008152600401611e1a91906121d2565b60405180910390fd5b505050565b611e33838383611eec565b611ee757600073ffffffffffffffffffffffffffffffffffffffff168373ffffffffffffffffffffffffffffffffffffffff1603611ea857806040517f7e273289000000000000000000000000000000000000000000000000000000008152600401611e9f9190612268565b60405180910390fd5b81816040517f177e802f000000000000000000000000000000000000000000000000000000008152600401611ede9291906126e8565b60405180910390fd5b505050565b60008073ffffffffffffffffffffffffffffffffffffffff168373ffffffffffffffffffffffffffffffffffffffff1614158015611fa457508273ffffffffffffffffffffffffffffffffffffffff168473ffffffffffffffffffffffffffffffffffffffff161480611f655750611f648484610a2f565b5b80611fa357508273ffffffffffffffffffffffffffffffffffffffff16611f8b83610c4b565b73ffffffffffffffffffffffffffffffffffffffff16145b5b90509392505050565b6000604051905090565b600080fd5b600080fd5b60007fffffffff0000000000000000000000000000000000000000000000000000000082169050919050565b611ff681611fc1565b811461200157600080fd5b50565b60008135905061201381611fed565b92915050565b60006020828403121561202f5761202e611fb7565b5b600061203d84828501612004565b91505092915050565b60008115159050919050565b61205b81612046565b82525050565b60006020820190506120766000830184612052565b92915050565b600081519050919050565b600082825260208201905092915050565b60005b838110156120b657808201518184015260208101905061209b565b60008484015250505050565b6000601f19601f8301169050919050565b60006120de8261207c565b6120e88185612087565b93506120f8818560208601612098565b612101816120c2565b840191505092915050565b6000602082019050818103600083015261212681846120d3565b905092915050565b6000819050919050565b6121418161212e565b811461214c57600080fd5b50565b60008135905061215e81612138565b92915050565b60006020828403121561217a57612179611fb7565b5b60006121888482850161214f565b91505092915050565b600073ffffffffffffffffffffffffffffffffffffffff82169050919050565b60006121bc82612191565b9050919050565b6121cc816121b1565b82525050565b60006020820190506121e760008301846121c3565b92915050565b6121f6816121b1565b811461220157600080fd5b50565b600081359050612213816121ed565b92915050565b600080604083850312156122305761222f611fb7565b5b600061223e85828601612204565b925050602061224f8582860161214f565b9150509250929050565b6122628161212e565b82525050565b600060208201905061227d6000830184612259565b92915050565b60008060006060848603121561229c5761229b611fb7565b5b60006122aa86828701612204565b93505060206122bb86828701612204565b92505060406122cc8682870161214f565b9150509250925092565b600080fd5b600080fd5b7f4e487b7100000000000000000000000000000000000000000000000000000000600052604160045260246000fd5b612318826120c2565b810181811067ffffffffffffffff82111715612337576123366122e0565b5b80604052505050565b600061234a611fad565b9050612356828261230f565b919050565b600067ffffffffffffffff821115612376576123756122e0565b5b61237f826120c2565b9050602081019050919050565b82818337600083830152505050565b60006123ae6123a98461235b565b612340565b9050828152602081018484840111156123ca576123c96122db565b5b6123d584828561238c565b509392505050565b600082601f8301126123f2576123f16122d6565b5b813561240284826020860161239b565b91505092915050565b60006020828403121561242157612420611fb7565b5b600082013567ffffffffffffffff81111561243f5761243e611fbc565b5b61244b848285016123dd565b91505092915050565b60006020828403121561246a57612469611fb7565b5b600061247884828501612204565b91505092915050565b61248a81612046565b811461249557600080fd5b50565b6000813590506124a781612481565b92915050565b600080604083850312156124c4576124c3611fb7565b5b60006124d285828601612204565b92505060206124e385828601612498565b9150509250929050565b600067ffffffffffffffff821115612508576125076122e0565b5b612511826120c2565b9050602081019050919050565b600061253161252c846124ed565b612340565b90508281526020810184848401111561254d5761254c6122db565b5b61255884828561238c565b509392505050565b600082601f830112612575576125746122d6565b5b813561258584826020860161251e565b91505092915050565b600080600080608085870312156125a8576125a7611fb7565b5b60006125b687828801612204565b94505060206125c787828801612204565b93505060406125d88782880161214f565b925050606085013567ffffffffffffffff8111156125f9576125f8611fbc565b5b61260587828801612560565b91505092959194509250565b6000806040838503121561262857612627611fb7565b5b600061263685828601612204565b925050602061264785828601612204565b9150509250929050565b7f4e487b7100000000000000000000000000000000000000000000000000000000600052602260045260246000fd5b6000600282049050600182168061269857607f821691505b6020821081036126ab576126aa612651565b5b50919050565b60006060820190506126c660008301866121c3565b6126d36020830185612259565b6126e060408301846121c3565b949350505050565b60006040820190506126fd60008301856121c3565b61270a6020830184612259565b9392505050565b7f4e487b7100000000000000000000000000000000000000000000000000000000600052603260045260246000fd5b60008190508160005260206000209050919050565b60006020601f8301049050919050565b600082821b905092915050565b6000600883026127a27fffffffffffffffffffffffffffffffffffffffffffffffffffffffffffffffff82612765565b6127ac8683612765565b95508019841693508086168417925050509392505050565b6000819050919050565b60006127e96127e46127df8461212e565b6127c4565b61212e565b9050919050565b6000819050919050565b612803836127ce565b61281761280f826127f0565b848454612772565b825550505050565b600090565b61282c61281f565b6128378184846127fa565b505050565b5b8181101561285b57612850600082612824565b60018101905061283d565b5050565b601f8211156128a05761287181612740565b61287a84612755565b81016020851015612889578190505b61289d61289585612755565b83018261283c565b50505b505050565b600082821c905092915050565b60006128c3600019846008026128a5565b1980831691505092915050565b60006128dc83836128b2565b9150826002028217905092915050565b6128f58261207c565b67ffffffffffffffff81111561290e5761290d6122e0565b5b6129188254612680565b61292382828561285f565b600060209050601f8311600181146129565760008415612944578287015190505b61294e85826128d0565b8655506129b6565b601f19841661296486612740565b60005b8281101561298c57848901518255600182019150602085019450602081019050612967565b868310156129a957848901516129a5601f8916826128b2565b8355505b6001600288020188555050505b505050505050565b600081905092915050565b60006129d48261207c565b6129de81856129be565b93506129ee818560208601612098565b80840191505092915050565b6000612a0682856129c9565b9150612a1282846129c9565b91508190509392505050565b600081519050919050565b600082825260208201905092915050565b6000612a4582612a1e565b612a4f8185612a29565b9350612a5f818560208601612098565b612a68816120c2565b840191505092915050565b6000608082019050612a8860008301876121c3565b612a9560208301866121c3565b612aa26040830185612259565b8181036060830152612ab48184612a3a565b905095945050505050565b600081519050612ace81611fed565b92915050565b600060208284031215612aea57612ae9611fb7565b5b6000612af884828501612abf565b91505092915050565b7f4e487b7100000000000000000000000000000000000000000000000000000000600052601260045260246000fd5b7f4e487b7100000000000000000000000000000000000000000000000000000000600052601160045260246000fd5b6000612b6a8261212e565b9150612b758361212e565b9250828203905081811115612b8d57612b8c612b30565b5b92915050565b7f4e487b7100000000000000000000000000000000000000000000000000000000600052603160045260246000fdfea2646970667358221220a9c47939fa01ef11612e1d208ddcde83f764eae78187860d551c28d7bf5dba8164736f6c634300081b0033",
  "linkReferences": {},
  "deployedLinkReferences": {}
}