{
  "_format": "hh-sol-artifact-1",
  "contractName": "StakingFacet",
  "sourceName": "contracts/facets/StakingFacet.sol",
  "abi": [
    {
      "inputs": [],
      "name": "ReentrancyGuardReentrantCall",
      "type": "error"
    },
    {
      "anonymous": false,
      "inputs": [
        {
          "indexed": true,
          "internalType": "address",
          "name": "user",
          "type": "address"
        },
        {
          "indexed": false,
          "internalType": "uint256",
          "name": "amount",
          "type": "uint256"
        }
      ],
      "name": "RewardsClaimed",
      "type": "event"
    },
    {
      "anonymous": false,
      "inputs": [
        {
          "indexed": true,
          "internalType": "address",
          "name": "user",
          "type": "address"
        },
        {
          "indexed": true,
          "internalType": "uint256",
          "name": "tokenId",
          "type": "uint256"
        }
      ],
      "name": "Staked",
      "type": "event"
    },
    {
      "anonymous": false,
      "inputs": [
        {
          "indexed": true,
          "internalType": "address",
          "name": "user",
          "type": "address"
        },
        {
          "indexed": true,
          "internalType": "uint256",
          "name": "tokenId",
          "type": "uint256"
        }
      ],
      "name": "Unstaked",
      "type": "event"
    },
    {
      "inputs": [],
      "name": "MAX_BATCH_SIZE",
      "outputs": [
        {
          "internalType": "uint256",
          "name": "",
          "type": "uint256"
        }
      ],
      "stateMutability": "view",
      "type": "function"
    },
    {
      "inputs": [],
      "name": "PRECISION",
      "outputs": [
        {
          "internalType": "uint256",
          "name": "",
          "type": "uint256"
        }
      ],
      "stateMutability": "view",
      "type": "function"
    },
    {
      "inputs": [],
      "name": "STAKE_REWARD_BASE_DIVISOR",
      "outputs": [
        {
          "internalType": "uint256",
          "name": "",
          "type": "uint256"
        }
      ],
      "stateMutability": "view",
      "type": "function"
    },
    {
      "inputs": [],
      "name": "STAKING_ALLOCATION",
      "outputs": [
        {
          "internalType": "uint256",
          "name": "",
          "type": "uint256"
        }
      ],
      "stateMutability": "view",
      "type": "function"
    },
    {
      "inputs": [],
      "name": "calculateRewardPerBlock",
      "outputs": [
        {
          "internalType": "uint256",
          "name": "",
          "type": "uint256"
        }
      ],
      "stateMutability": "view",
      "type": "function"
    },
    {
      "inputs": [],
      "name": "claimAllRewards",
      "outputs": [],
      "stateMutability": "nonpayable",
      "type": "function"
    },
    {
      "inputs": [
        {
          "internalType": "uint256",
          "name": "startIndex",
          "type": "uint256"
        },
        {
          "internalType": "uint256",
          "name": "count",
          "type": "uint256"
        }
      ],
      "name": "claimRewardsBatch",
      "outputs": [],
      "stateMutability": "nonpayable",
      "type": "function"
    },
    {
      "inputs": [
        {
          "internalType": "address",
          "name": "user",
          "type": "address"
        }
      ],
      "name": "getPendingRewards",
      "outputs": [
        {
          "internalType": "uint256",
          "name": "",
          "type": "uint256"
        }
      ],
      "stateMutability": "view",
      "type": "function"
    },
    {
      "inputs": [],
      "name": "getRemainingSupply",
      "outputs": [
        {
          "internalType": "uint256",
          "name": "",
          "type": "uint256"
        }
      ],
      "stateMutability": "view",
      "type": "function"
    },
    {
      "inputs": [
        {
          "internalType": "uint256",
          "name": "tokenId",
          "type": "uint256"
        }
      ],
      "name": "getStakeInfo",
      "outputs": [
        {
          "internalType": "address",
          "name": "owner",
          "type": "address"
        },
        {
          "internalType": "uint256",
          "name": "startBlock",
          "type": "uint256"
        },
        {
          "internalType": "uint256",
          "name": "pendingRewards",
          "type": "uint256"
        }
      ],
      "stateMutability": "view",
      "type": "function"
    },
    {
      "inputs": [],
      "name": "getTotalStaked",
      "outputs": [
        {
          "internalType": "uint256",
          "name": "",
          "type": "uint256"
        }
      ],
      "stateMutability": "view",
      "type": "function"
    },
    {
      "inputs": [
        {
          "internalType": "address",
          "name": "user",
          "type": "address"
        }
      ],
      "name": "getUserStakedTokens",
      "outputs": [
        {
          "internalType": "uint256[]",
          "name": "activeTokens",
          "type": "uint256[]"
        }
      ],
      "stateMutability": "view",
      "type": "function"
    },
    {
      "inputs": [
        {
          "internalType": "address",
          "name": "user",
          "type": "address"
        }
      ],
      "name": "getUserTotalStaked",
      "outputs": [
        {
          "internalType": "uint256",
          "name": "",
          "type": "uint256"
        }
      ],
      "stateMutability": "view",
      "type": "function"
    },
    {
      "inputs": [
        {
          "internalType": "uint256",
          "name": "tokenId",
          "type": "uint256"
        }
      ],
      "name": "stakeLandPixel",
      "outputs": [],
      "stateMutability": "nonpayable",
      "type": "function"
    },
    {
      "inputs": [
        {
          "internalType": "uint256",
          "name": "tokenId",
          "type": "uint256"
        }
      ],
      "name": "unstakeLandPixel",
      "outputs": [],
      "stateMutability": "nonpayable",
      "type": "function"
    }
  ],
  "bytecode": "0x6080604052348015600f57600080fd5b50600160008190555061265b806100276000396000f3fe608060405234801561001057600080fd5b50600436106100f55760003560e01c80636e2f169611610097578063b99dcae511610066578063b99dcae514610262578063cfdbf25414610280578063e4b7fb731461029e578063f6ed2017146102bc576100f5565b80636e2f1696146101c8578063aaf5eb68146101f8578063ae1a01a214610216578063af90bf6a14610246576100f5565b80630b83a727116100d35780630b83a727146101685780633d5d35b01461017257806344e1888d1461018e578063617fe062146101aa576100f5565b806306fcc72e146100fa5780630917e776146101185780630981348214610136575b600080fd5b6101026102ec565b60405161010f9190611d71565b60405180910390f35b610120610346565b60405161012d9190611d71565b60405180910390f35b610150600480360381019061014b9190611dbd565b610359565b60405161015f93929190611e2b565b60405180910390f35b61017061044f565b005b61018c60048036038101906101879190611dbd565b610889565b005b6101a860048036038101906101a39190611dbd565b610cde565b005b6101b2610f7a565b6040516101bf9190611d71565b60405180910390f35b6101e260048036038101906101dd9190611e8e565b610f82565b6040516101ef9190611d71565b60405180910390f35b610200611094565b60405161020d9190611d71565b60405180910390f35b610230600480360381019061022b9190611e8e565b6110a0565b60405161023d9190611f79565b60405180910390f35b610260600480360381019061025b9190611f9b565b6112ee565b005b61026a6116c8565b6040516102779190611d71565b60405180910390f35b6102886116d7565b6040516102959190611d71565b60405180910390f35b6102a66116dc565b6040516102b39190611d71565b60405180910390f35b6102d660048036038101906102d19190611e8e565b61170a565b6040516102e39190611d71565b60405180910390f35b6000806102f761191f565b9050600081600c01540361030f576000915050610343565b600081600f01546a52b7d2dcc80cd2e400000061032c919061200a565b90506305f5e1008161033e919061206d565b925050505b90565b600061035061191f565b600c0154905090565b60008060008061036761191f565b9050600081600a01600087815260200190815260200160002090508060000160009054906101000a900473ffffffffffffffffffffffffffffffffffffffff16945080600101549350600082600e0154905082600d0154431180156103d05750600083600c0154115b1561043957600083600d0154436103e7919061200a565b905060006103f36102ec565b9050600085600c0154670de0b6b3a76400008484610411919061209e565b61041b919061209e565b610425919061206d565b9050808461043391906120e0565b93505050505b610443878261194c565b93505050509193909250565b610457611a29565b600061046161191f565b905061046b611a6f565b600081600b0160003373ffffffffffffffffffffffffffffffffffffffff1673ffffffffffffffffffffffffffffffffffffffff168152602001908152602001600020905060008260100160003373ffffffffffffffffffffffffffffffffffffffff1673ffffffffffffffffffffffffffffffffffffffff16815260200190815260200160002054905060005b828054905081101561069c57600083828154811061051a57610519612114565b5b90600052602060002001549050600085600a01600083815260200190815260200160002090503373ffffffffffffffffffffffffffffffffffffffff168160000160009054906101000a900473ffffffffffffffffffffffffffffffffffffffff1673ffffffffffffffffffffffffffffffffffffffff16146106225784600186805490506105a9919061200a565b815481106105ba576105b9612114565b5b90600052602060002001548584815481106105d8576105d7612114565b5b9060005260206000200181905550848054806105f7576105f6612143565b5b60019003818190600052602060002001600090559055828061061890612172565b9350505050610689565b806002015486600e01541115610679576000670de0b6b3a76400006001836002015489600e0154610653919061200a565b61065d919061209e565b610667919061206d565b9050808561067591906120e0565b9450505b85600e0154816002018190555050505b80806106949061219b565b9150506104f9565b50600081116106e0576040517f08c379a00000000000000000000000000000000000000000000000000000000081526004016106d790612240565b60405180910390fd5b60008360100160003373ffffffffffffffffffffffffffffffffffffffff1673ffffffffffffffffffffffffffffffffffffffff168152602001908152602001600020819055508083600f01600082825461073b91906120e0565b925050819055506a52b7d2dcc80cd2e400000083600f01541115610794576040517f08c379a000000000000000000000000000000000000000000000000000000000815260040161078b906122ac565b60405180910390fd5b61079d33611b9c565b8260010160009054906101000a900473ffffffffffffffffffffffffffffffffffffffff1673ffffffffffffffffffffffffffffffffffffffff166340c10f1933836040518363ffffffff1660e01b81526004016107fc9291906122cc565b600060405180830381600087803b15801561081657600080fd5b505af115801561082a573d6000803e3d6000fd5b505050503373ffffffffffffffffffffffffffffffffffffffff167ffc30cddea38e2bf4d6ea7d3f9ed3b6ad7f176419f4963bd81318067a4aee73fe826040516108749190611d71565b60405180910390a2505050610887611d11565b565b610891611a29565b600061089b61191f565b905060008160000160009054906101000a900473ffffffffffffffffffffffffffffffffffffffff1690503373ffffffffffffffffffffffffffffffffffffffff168173ffffffffffffffffffffffffffffffffffffffff16636352211e856040518263ffffffff1660e01b81526004016109169190611d71565b602060405180830381865afa158015610933573d6000803e3d6000fd5b505050506040513d601f19601f82011682018060405250810190610957919061230a565b73ffffffffffffffffffffffffffffffffffffffff16146109ad576040517f08c379a00000000000000000000000000000000000000000000000000000000081526004016109a490612383565b60405180910390fd5b600073ffffffffffffffffffffffffffffffffffffffff1682600a01600085815260200190815260200160002060000160009054906101000a900473ffffffffffffffffffffffffffffffffffffffff1673ffffffffffffffffffffffffffffffffffffffff1614610a54576040517f08c379a0000000000000000000000000000000000000000000000000000000008152600401610a4b906123ef565b60405180910390fd5b610a5c611a6f565b8073ffffffffffffffffffffffffffffffffffffffff166323b872dd3330866040518463ffffffff1660e01b8152600401610a999392919061240f565b600060405180830381600087803b158015610ab357600080fd5b505af1158015610ac7573d6000803e3d6000fd5b5050505060405180606001604052803373ffffffffffffffffffffffffffffffffffffffff16815260200143815260200183600e015481525082600a01600085815260200190815260200160002060008201518160000160006101000a81548173ffffffffffffffffffffffffffffffffffffffff021916908373ffffffffffffffffffffffffffffffffffffffff160217905550602082015181600101556040820151816002015590505060008083600b0160003373ffffffffffffffffffffffffffffffffffffffff1673ffffffffffffffffffffffffffffffffffffffff168152602001908152602001600020905060005b8180549050811015610c025785828281548110610bdc57610bdb612114565b5b906000526020600020015403610bf55760019250610c02565b8080600101915050610bbc565b5081610c715783600b0160003373ffffffffffffffffffffffffffffffffffffffff1673ffffffffffffffffffffffffffffffffffffffff1681526020019081526020016000208590806001815401808255809150506001900390600052602060002001600090919091909150555b83600c016000815480929190610c869061219b565b9190505550843373ffffffffffffffffffffffffffffffffffffffff167f9e71bc8eea02a63969f509818f2dafb9254532904319f9dbda79b67bd34a5f3d60405160405180910390a350505050610cdb611d11565b50565b610ce6611a29565b6000610cf061191f565b9050600081600a01600084815260200190815260200160002090503373ffffffffffffffffffffffffffffffffffffffff168160000160009054906101000a900473ffffffffffffffffffffffffffffffffffffffff1673ffffffffffffffffffffffffffffffffffffffff1614610d9d576040517f08c379a0000000000000000000000000000000000000000000000000000000008152600401610d9490612492565b60405180910390fd5b610da5611a6f565b6000610db58484600e015461194c565b90506000811115610e1957808360100160003373ffffffffffffffffffffffffffffffffffffffff1673ffffffffffffffffffffffffffffffffffffffff1681526020019081526020016000206000828254610e1191906120e0565b925050819055505b6000826002018190555082600a016000858152602001908152602001600020600080820160006101000a81549073ffffffffffffffffffffffffffffffffffffffff021916905560018201600090556002820160009055505082600c016000815480929190610e8790612172565b9190505550610e9533611b9c565b8260000160009054906101000a900473ffffffffffffffffffffffffffffffffffffffff1673ffffffffffffffffffffffffffffffffffffffff166323b872dd3033876040518463ffffffff1660e01b8152600401610ef69392919061240f565b600060405180830381600087803b158015610f1057600080fd5b505af1158015610f24573d6000803e3d6000fd5b50505050833373ffffffffffffffffffffffffffffffffffffffff167f0f5bb82176feb1b5e747e28471aa92156a04d9f3ab9f45f28e2d704232b93f7560405160405180910390a3505050610f77611d11565b50565b6305f5e10081565b600080610f8d61191f565b9050600081600b0160008573ffffffffffffffffffffffffffffffffffffffff1673ffffffffffffffffffffffffffffffffffffffff16815260200190815260200160002090506000805b8280549050811015611088578573ffffffffffffffffffffffffffffffffffffffff1684600a01600085848154811061101457611013612114565b5b9060005260206000200154815260200190815260200160002060000160009054906101000a900473ffffffffffffffffffffffffffffffffffffffff1673ffffffffffffffffffffffffffffffffffffffff160361107b5781806110779061219b565b9250505b8080600101915050610fd8565b50809350505050919050565b670de0b6b3a764000081565b606060006110ac61191f565b9050600081600b0160008573ffffffffffffffffffffffffffffffffffffffff1673ffffffffffffffffffffffffffffffffffffffff16815260200190815260200160002090506000805b82805490508110156111a7578573ffffffffffffffffffffffffffffffffffffffff1684600a01600085848154811061113357611132612114565b5b9060005260206000200154815260200190815260200160002060000160009054906101000a900473ffffffffffffffffffffffffffffffffffffffff1673ffffffffffffffffffffffffffffffffffffffff160361119a5781806111969061219b565b9250505b80806001019150506110f7565b508067ffffffffffffffff8111156111c2576111c16124b2565b5b6040519080825280602002602001820160405280156111f05781602001602082028036833780820191505090505b5093506000805b83805490508110156112e4578673ffffffffffffffffffffffffffffffffffffffff1685600a01600086848154811061123357611232612114565b5b9060005260206000200154815260200190815260200160002060000160009054906101000a900473ffffffffffffffffffffffffffffffffffffffff1673ffffffffffffffffffffffffffffffffffffffff16036112d75783818154811061129e5761129d612114565b5b90600052602060002001548683815181106112bc576112bb612114565b5b60200260200101818152505081806112d39061219b565b9250505b80806001019150506111f7565b5050505050919050565b6112f6611a29565b600061130061191f565b9050600081600b0160003373ffffffffffffffffffffffffffffffffffffffff1673ffffffffffffffffffffffffffffffffffffffff16815260200190815260200160002090508080549050838561135891906120e0565b106113675761136633611b9c565b5b808054905084106113ad576040517f08c379a00000000000000000000000000000000000000000000000000000000081526004016113a49061252d565b60405180910390fd5b6000831180156113be575060328311155b6113fd576040517f08c379a00000000000000000000000000000000000000000000000000000000081526004016113f490612599565b60405180910390fd5b6000611418848661140e91906120e0565b8380549050611d1b565b9050611422611a6f565b60008360100160003373ffffffffffffffffffffffffffffffffffffffff1673ffffffffffffffffffffffffffffffffffffffff16815260200190815260200160002054905060008690505b8281101561162357600084828154811061148b5761148a612114565b5b90600052602060002001549050600086600a01600083815260200190815260200160002090503373ffffffffffffffffffffffffffffffffffffffff168160000160009054906101000a900473ffffffffffffffffffffffffffffffffffffffff1673ffffffffffffffffffffffffffffffffffffffff16141580611514575060008160020154145b156115b157856001878054905061152b919061200a565b8154811061153c5761153b612114565b5b906000526020600020015486848154811061155a57611559612114565b5b90600052602060002001819055508580548061157957611578612143565b5b600190038181906000526020600020016000905590556115a8888a61159e91906120e0565b8780549050611d1b565b9450505061161e565b806002015487600e01541115611608576000670de0b6b3a7640000600183600201548a600e01546115e2919061200a565b6115ec919061209e565b6115f6919061206d565b9050808561160491906120e0565b9450505b86600e0154816002018190555082600101925050505b61146e565b50808460100160003373ffffffffffffffffffffffffffffffffffffffff1673ffffffffffffffffffffffffffffffffffffffff168152602001908152602001600020819055503373ffffffffffffffffffffffffffffffffffffffff167ffc30cddea38e2bf4d6ea7d3f9ed3b6ad7f176419f4963bd81318067a4aee73fe826040516116b09190611d71565b60405180910390a2505050506116c4611d11565b5050565b6a52b7d2dcc80cd2e400000081565b603281565b6000806116e761191f565b905080600f01546a52b7d2dcc80cd2e4000000611704919061200a565b91505090565b60008061171561191f565b9050600081600b0160008573ffffffffffffffffffffffffffffffffffffffff1673ffffffffffffffffffffffffffffffffffffffff168152602001908152602001600020905060008260100160008673ffffffffffffffffffffffffffffffffffffffff1673ffffffffffffffffffffffffffffffffffffffff168152602001908152602001600020549050600083600e0154905083600d0154431180156117c25750600084600c0154115b1561182b57600084600d0154436117d9919061200a565b905060006117e56102ec565b9050600086600c0154670de0b6b3a76400008484611803919061209e565b61180d919061209e565b611817919061206d565b9050808461182591906120e0565b93505050505b60005b838054905081101561191257600085600a01600086848154811061185557611854612114565b5b9060005260206000200154815260200190815260200160002090508773ffffffffffffffffffffffffffffffffffffffff168160000160009054906101000a900473ffffffffffffffffffffffffffffffffffffffff1673ffffffffffffffffffffffffffffffffffffffff160361190457670de0b6b3a764000060018260020154856118e2919061200a565b6118ec919061209e565b6118f6919061206d565b8461190191906120e0565b93505b50808060010191505061182e565b5081945050505050919050565b6000807fa4e2f18d28b302b06b1e3cb16019cb164aad33e7da557894e1cf0c25324bcdb290508091505090565b60008061195761191f565b9050600081600a0160008681526020019081526020016000209050600073ffffffffffffffffffffffffffffffffffffffff168160000160009054906101000a900473ffffffffffffffffffffffffffffffffffffffff1673ffffffffffffffffffffffffffffffffffffffff1614806119d5575060008160020154145b156119e557600092505050611a23565b806002015484116119fb57600092505050611a23565b670de0b6b3a7640000816002015485611a14919061200a565b611a1e919061206d565b925050505b92915050565b600260005403611a65576040517f3ee5aeb500000000000000000000000000000000000000000000000000000000815260040160405180910390fd5b6002600081905550565b6000611a7961191f565b905080600d01544311611a8c5750611b9a565b600081600c015403611aa7574381600d018190555050611b9a565b600081600d015443611ab9919061200a565b90506000611ac56102ec565b9050600083600c0154670de0b6b3a764000083611ae2919061209e565b611aec919061206d565b905060008382611afc919061209e565b905084600e01547fffffffffffffffffffffffffffffffffffffffffffffffffffffffffffffffff611b2e919061200a565b811115611b70576040517f08c379a0000000000000000000000000000000000000000000000000000000008152600401611b6790612605565b60405180910390fd5b8085600e016000828254611b8491906120e0565b925050819055504385600d018190555050505050505b565b6000611ba661191f565b9050600081600b0160008473ffffffffffffffffffffffffffffffffffffffff1673ffffffffffffffffffffffffffffffffffffffff16815260200190815260200160002090506000805b8280549050811015611cd1576000838281548110611c1257611c11612114565b5b906000526020600020015490508573ffffffffffffffffffffffffffffffffffffffff1685600a01600083815260200190815260200160002060000160009054906101000a900473ffffffffffffffffffffffffffffffffffffffff1673ffffffffffffffffffffffffffffffffffffffff1603611cc357818314611cb45780848481548110611ca557611ca4612114565b5b90600052602060002001819055505b8280611cbf9061219b565b9350505b508080600101915050611bf1565b505b8082805490501115611d0b5781805480611cf057611cef612143565b5b60019003818190600052602060002001600090559055611cd3565b50505050565b6001600081905550565b6000611d2a8284108484611d32565b905092915050565b6000611d3d84611d4c565b82841802821890509392505050565b60008115159050919050565b6000819050919050565b611d6b81611d58565b82525050565b6000602082019050611d866000830184611d62565b92915050565b600080fd5b611d9a81611d58565b8114611da557600080fd5b50565b600081359050611db781611d91565b92915050565b600060208284031215611dd357611dd2611d8c565b5b6000611de184828501611da8565b91505092915050565b600073ffffffffffffffffffffffffffffffffffffffff82169050919050565b6000611e1582611dea565b9050919050565b611e2581611e0a565b82525050565b6000606082019050611e406000830186611e1c565b611e4d6020830185611d62565b611e5a6040830184611d62565b949350505050565b611e6b81611e0a565b8114611e7657600080fd5b50565b600081359050611e8881611e62565b92915050565b600060208284031215611ea457611ea3611d8c565b5b6000611eb284828501611e79565b91505092915050565b600081519050919050565b600082825260208201905092915050565b6000819050602082019050919050565b611ef081611d58565b82525050565b6000611f028383611ee7565b60208301905092915050565b6000602082019050919050565b6000611f2682611ebb565b611f308185611ec6565b9350611f3b83611ed7565b8060005b83811015611f6c578151611f538882611ef6565b9750611f5e83611f0e565b925050600181019050611f3f565b5085935050505092915050565b60006020820190508181036000830152611f938184611f1b565b905092915050565b60008060408385031215611fb257611fb1611d8c565b5b6000611fc085828601611da8565b9250506020611fd185828601611da8565b9150509250929050565b7f4e487b7100000000000000000000000000000000000000000000000000000000600052601160045260246000fd5b600061201582611d58565b915061202083611d58565b925082820390508181111561203857612037611fdb565b5b92915050565b7f4e487b7100000000000000000000000000000000000000000000000000000000600052601260045260246000fd5b600061207882611d58565b915061208383611d58565b9250826120935761209261203e565b5b828204905092915050565b60006120a982611d58565b91506120b483611d58565b92508282026120c281611d58565b915082820484148315176120d9576120d8611fdb565b5b5092915050565b60006120eb82611d58565b91506120f683611d58565b925082820190508082111561210e5761210d611fdb565b5b92915050565b7f4e487b7100000000000000000000000000000000000000000000000000000000600052603260045260246000fd5b7f4e487b7100000000000000000000000000000000000000000000000000000000600052603160045260246000fd5b600061217d82611d58565b9150600082036121905761218f611fdb565b5b600182039050919050565b60006121a682611d58565b91507fffffffffffffffffffffffffffffffffffffffffffffffffffffffffffffffff82036121d8576121d7611fdb565b5b600182019050919050565b600082825260208201905092915050565b7f4e6f207265776172647320746f20636c61696d00000000000000000000000000600082015250565b600061222a6013836121e3565b9150612235826121f4565b602082019050919050565b600060208201905081810360008301526122598161221d565b9050919050565b7f45786365656473207374616b696e6720616c6c6f636174696f6e000000000000600082015250565b6000612296601a836121e3565b91506122a182612260565b602082019050919050565b600060208201905081810360008301526122c581612289565b9050919050565b60006040820190506122e16000830185611e1c565b6122ee6020830184611d62565b9392505050565b60008151905061230481611e62565b92915050565b6000602082840312156123205761231f611d8c565b5b600061232e848285016122f5565b91505092915050565b7f4e6f7420746f6b656e206f776e65720000000000000000000000000000000000600082015250565b600061236d600f836121e3565b915061237882612337565b602082019050919050565b6000602082019050818103600083015261239c81612360565b9050919050565b7f416c7265616479207374616b6564000000000000000000000000000000000000600082015250565b60006123d9600e836121e3565b91506123e4826123a3565b602082019050919050565b60006020820190508181036000830152612408816123cc565b9050919050565b60006060820190506124246000830186611e1c565b6124316020830185611e1c565b61243e6040830184611d62565b949350505050565b7f4e6f74207374616b65206f776e65720000000000000000000000000000000000600082015250565b600061247c600f836121e3565b915061248782612446565b602082019050919050565b600060208201905081810360008301526124ab8161246f565b9050919050565b7f4e487b7100000000000000000000000000000000000000000000000000000000600052604160045260246000fd5b7f496e76616c696420737461727420696e64657800000000000000000000000000600082015250565b60006125176013836121e3565b9150612522826124e1565b602082019050919050565b600060208201905081810360008301526125468161250a565b9050919050565b7f496e76616c69642062617463682073697a650000000000000000000000000000600082015250565b60006125836012836121e3565b915061258e8261254d565b602082019050919050565b600060208201905081810360008301526125b281612576565b9050919050565b7f416363756d756c617465642072657761726473206f766572666c6f7700000000600082015250565b60006125ef601c836121e3565b91506125fa826125b9565b602082019050919050565b6000602082019050818103600083015261261e816125e2565b905091905056fea26469706673582212202f8697e2dda1fb74adc6fad6ebaab6cc2d154f10b30eafca7b7c2d0dfbe50f1864736f6c634300081b0033",
  "linkReferences": {},
  "deployedLinkReferences": {}
}