{
  "_format": "hh-sol-artifact-1",
  "contractName": "UnlockDistrictVote",
  "sourceName": "contracts/UnlockDistrictVote.sol",
  "abi": [
    {
      "inputs": [
        {
          "internalType": "address",
          "name": "initialOwner",
          "type": "address"
        },
        {
          "internalType": "address",
          "name": "_lndToken",
          "type": "address"
        },
        {
          "internalType": "uint256",
          "name": "_voteThreshold",
          "type": "uint256"
        },
        {
          "internalType": "uint256",
          "name": "_burnPercentOnLockIn",
          "type": "uint256"
        }
      ],
      "stateMutability": "nonpayable",
      "type": "constructor"
    },
    {
      "inputs": [
        {
          "internalType": "address",
          "name": "owner",
          "type": "address"
        }
      ],
      "name": "OwnableInvalidOwner",
      "type": "error"
    },
    {
      "inputs": [
        {
          "internalType": "address",
          "name": "account",
          "type": "address"
        }
      ],
      "name": "OwnableUnauthorizedAccount",
      "type": "error"
    },
    {
      "inputs": [],
      "name": "ReentrancyGuardReentrantCall",
      "type": "error"
    },
    {
      "anonymous": false,
      "inputs": [
        {
          "indexed": true,
          "internalType": "uint256",
          "name": "districtId",
          "type": "uint256"
        },
        {
          "indexed": false,
          "internalType": "uint256",
          "name": "totalVotes",
          "type": "uint256"
        },
        {
          "indexed": false,
          "internalType": "uint256",
          "name": "burnedAmount",
          "type": "uint256"
        }
      ],
      "name": "DistrictUnlocked",
      "type": "event"
    },
    {
      "anonymous": false,
      "inputs": [
        {
          "indexed": true,
          "internalType": "address",
          "name": "previousOwner",
          "type": "address"
        },
        {
          "indexed": true,
          "internalType": "address",
          "name": "newOwner",
          "type": "address"
        }
      ],
      "name": "OwnershipTransferred",
      "type": "event"
    },
    {
      "anonymous": false,
      "inputs": [
        {
          "indexed": true,
          "internalType": "address",
          "name": "voter",
          "type": "address"
        },
        {
          "indexed": true,
          "internalType": "uint256",
          "name": "districtId",
          "type": "uint256"
        },
        {
          "indexed": false,
          "internalType": "uint256",
          "name": "amount",
          "type": "uint256"
        }
      ],
      "name": "RemainderWithdrawn",
      "type": "event"
    },
    {
      "anonymous": false,
      "inputs": [
        {
          "indexed": true,
          "internalType": "address",
          "name": "voter",
          "type": "address"
        },
        {
          "indexed": true,
          "internalType": "uint256",
          "name": "districtId",
          "type": "uint256"
        },
        {
          "indexed": false,
          "internalType": "uint256",
          "name": "amount",
          "type": "uint256"
        }
      ],
      "name": "VoteCast",
      "type": "event"
    },
    {
      "anonymous": false,
      "inputs": [
        {
          "indexed": true,
          "internalType": "address",
          "name": "voter",
          "type": "address"
        },
        {
          "indexed": true,
          "internalType": "uint256",
          "name": "districtId",
          "type": "uint256"
        },
        {
          "indexed": false,
          "internalType": "uint256",
          "name": "amount",
          "type": "uint256"
        }
      ],
      "name": "VoteWithdrawn",
      "type": "event"
    },
    {
      "inputs": [],
      "name": "burnPercentOnLockIn",
      "outputs": [
        {
          "internalType": "uint256",
          "name": "",
          "type": "uint256"
        }
      ],
      "stateMutability": "view",
      "type": "function"
    },
    {
      "inputs": [
        {
          "internalType": "uint256",
          "name": "",
          "type": "uint256"
        }
      ],
      "name": "districtVotes",
      "outputs": [
        {
          "internalType": "uint256",
          "name": "",
          "type": "uint256"
        }
      ],
      "stateMutability": "view",
      "type": "function"
    },
    {
      "inputs": [],
      "name": "lndToken",
      "outputs": [
        {
          "internalType": "contract IERC20",
          "name": "",
          "type": "address"
        }
      ],
      "stateMutability": "view",
      "type": "function"
    },
    {
      "inputs": [],
      "name": "owner",
      "outputs": [
        {
          "internalType": "address",
          "name": "",
          "type": "address"
        }
      ],
      "stateMutability": "view",
      "type": "function"
    },
    {
      "inputs": [],
      "name": "renounceOwnership",
      "outputs": [],
      "stateMutability": "nonpayable",
      "type": "function"
    },
    {
      "inputs": [
        {
          "internalType": "uint256",
          "name": "_burnPercentOnLockIn",
          "type": "uint256"
        }
      ],
      "name": "setBurnPercentOnLockIn",
      "outputs": [],
      "stateMutability": "nonpayable",
      "type": "function"
    },
    {
      "inputs": [
        {
          "internalType": "uint256",
          "name": "_voteThreshold",
          "type": "uint256"
        }
      ],
      "name": "setVoteThreshold",
      "outputs": [],
      "stateMutability": "nonpayable",
      "type": "function"
    },
    {
      "inputs": [
        {
          "internalType": "address",
          "name": "newOwner",
          "type": "address"
        }
      ],
      "name": "transferOwnership",
      "outputs": [],
      "stateMutability": "nonpayable",
      "type": "function"
    },
    {
      "inputs": [
        {
          "internalType": "uint256",
          "name": "",
          "type": "uint256"
        }
      ],
      "name": "unlockedDistricts",
      "outputs": [
        {
          "internalType": "bool",
          "name": "",
          "type": "bool"
        }
      ],
      "stateMutability": "view",
      "type": "function"
    },
    {
      "inputs": [
        {
          "internalType": "uint256",
          "name": "",
          "type": "uint256"
        },
        {
          "internalType": "address",
          "name": "",
          "type": "address"
        }
      ],
      "name": "userVotes",
      "outputs": [
        {
          "internalType": "uint256",
          "name": "",
          "type": "uint256"
        }
      ],
      "stateMutability": "view",
      "type": "function"
    },
    {
      "inputs": [
        {
          "internalType": "uint256",
          "name": "districtId",
          "type": "uint256"
        },
        {
          "internalType": "uint256",
          "name": "amount",
          "type": "uint256"
        }
      ],
      "name": "vote",
      "outputs": [],
      "stateMutability": "nonpayable",
      "type": "function"
    },
    {
      "inputs": [],
      "name": "voteThreshold",
      "outputs": [
        {
          "internalType": "uint256",
          "name": "",
          "type": "uint256"
        }
      ],
      "stateMutability": "view",
      "type": "function"
    },
    {
      "inputs": [
        {
          "internalType": "uint256",
          "name": "districtId",
          "type": "uint256"
        }
      ],
      "name": "withdrawAfterUnlock",
      "outputs": [],
      "stateMutability": "nonpayable",
      "type": "function"
    },
    {
      "inputs": [
        {
          "internalType": "uint256",
          "name": "districtId",
          "type": "uint256"
        },
        {
          "internalType": "uint256",
          "name": "amount",
          "type": "uint256"
        }
      ],
      "name": "withdrawVote",
      "outputs": [],
      "stateMutability": "nonpayable",
      "type": "function"
    }
  ],
  "bytecode": "0x608060405234801561001057600080fd5b50604051611ce4380380611ce483398181016040528101906100329190610325565b83600073ffffffffffffffffffffffffffffffffffffffff168173ffffffffffffffffffffffffffffffffffffffff16036100a55760006040517f1e4fbdf700000000000000000000000000000000000000000000000000000000815260040161009c919061039b565b60405180910390fd5b6100b4816101c860201b60201c565b5060018081905550600073ffffffffffffffffffffffffffffffffffffffff168373ffffffffffffffffffffffffffffffffffffffff160361012b576040517f08c379a000000000000000000000000000000000000000000000000000000000815260040161012290610413565b60405180910390fd5b612710811115610170576040517f08c379a0000000000000000000000000000000000000000000000000000000008152600401610167906104a5565b60405180910390fd5b82600260006101000a81548173ffffffffffffffffffffffffffffffffffffffff021916908373ffffffffffffffffffffffffffffffffffffffff1602179055508160038190555080600481905550505050506104c5565b60008060009054906101000a900473ffffffffffffffffffffffffffffffffffffffff169050816000806101000a81548173ffffffffffffffffffffffffffffffffffffffff021916908373ffffffffffffffffffffffffffffffffffffffff1602179055508173ffffffffffffffffffffffffffffffffffffffff168173ffffffffffffffffffffffffffffffffffffffff167f8be0079c531659141344cd1fd0a4f28419497f9722a3daafe3b4186f6b6457e060405160405180910390a35050565b600080fd5b600073ffffffffffffffffffffffffffffffffffffffff82169050919050565b60006102bc82610291565b9050919050565b6102cc816102b1565b81146102d757600080fd5b50565b6000815190506102e9816102c3565b92915050565b6000819050919050565b610302816102ef565b811461030d57600080fd5b50565b60008151905061031f816102f9565b92915050565b6000806000806080858703121561033f5761033e61028c565b5b600061034d878288016102da565b945050602061035e878288016102da565b935050604061036f87828801610310565b925050606061038087828801610310565b91505092959194509250565b610395816102b1565b82525050565b60006020820190506103b0600083018461038c565b92915050565b600082825260208201905092915050565b7f496e76616c696420746f6b656e20616464726573730000000000000000000000600082015250565b60006103fd6015836103b6565b9150610408826103c7565b602082019050919050565b6000602082019050818103600083015261042c816103f0565b9050919050565b7f4275726e2070657263656e746167652063616e6e6f742065786365656420313060008201527f3025000000000000000000000000000000000000000000000000000000000000602082015250565b600061048f6022836103b6565b915061049a82610433565b604082019050919050565b600060208201905081810360008301526104be81610482565b9050919050565b611810806104d46000396000f3fe608060405234801561001057600080fd5b50600436106100ea5760003560e01c8063715018a61161008c578063b384abef11610066578063b384abef14610223578063de6d9f631461023f578063f2fde38b1461025d578063fe5b3e3b14610279576100ea565b8063715018a6146101df57806373bc03a6146101e95780638da5cb5b14610205576100ea565b80633c109e45116100c85780633c109e45146101435780634fe437d5146101735780635292e9ef146101915780635ec71c52146101af576100ea565b806312909485146100ef578063204973a01461010b578063240b095714610127575b600080fd5b61010960048036038101906101049190610fec565b6102a9565b005b61012560048036038101906101209190611019565b6102bb565b005b610141600480360381019061013c9190610fec565b610582565b005b61015d60048036038101906101589190610fec565b6105d9565b60405161016a9190611068565b60405180910390f35b61017b6105f1565b6040516101889190611068565b60405180910390f35b6101996105f7565b6040516101a69190611068565b60405180910390f35b6101c960048036038101906101c49190610fec565b6105fd565b6040516101d6919061109e565b60405180910390f35b6101e761061d565b005b61020360048036038101906101fe9190610fec565b610631565b005b61020d6108f4565b60405161021a91906110fa565b60405180910390f35b61023d60048036038101906102389190611019565b61091d565b005b610247610bbc565b6040516102549190611174565b60405180910390f35b610277600480360381019061027291906111bb565b610be2565b005b610293600480360381019061028e91906111e8565b610c68565b6040516102a09190611068565b60405180910390f35b6102b1610c8d565b8060038190555050565b6102c3610d14565b6007600083815260200190815260200160002060009054906101000a900460ff1615610324576040517f08c379a000000000000000000000000000000000000000000000000000000000815260040161031b90611285565b60405180910390fd5b806006600084815260200190815260200160002060003373ffffffffffffffffffffffffffffffffffffffff1673ffffffffffffffffffffffffffffffffffffffff1681526020019081526020016000205410156103b7576040517f08c379a00000000000000000000000000000000000000000000000000000000081526004016103ae906112f1565b60405180910390fd5b806006600084815260200190815260200160002060003373ffffffffffffffffffffffffffffffffffffffff1673ffffffffffffffffffffffffffffffffffffffff16815260200190815260200160002060008282546104179190611340565b92505081905550806005600084815260200190815260200160002060008282546104419190611340565b92505081905550600260009054906101000a900473ffffffffffffffffffffffffffffffffffffffff1673ffffffffffffffffffffffffffffffffffffffff1663a9059cbb33836040518363ffffffff1660e01b81526004016104a5929190611374565b6020604051808303816000875af11580156104c4573d6000803e3d6000fd5b505050506040513d601f19601f820116820180604052508101906104e891906113c9565b610527576040517f08c379a000000000000000000000000000000000000000000000000000000000815260040161051e90611442565b60405180910390fd5b813373ffffffffffffffffffffffffffffffffffffffff167f58c75f3548476ce3196d3b0afeca83445eea19d6e200490b5e8e770cee4edb498360405161056e9190611068565b60405180910390a361057e610d5a565b5050565b61058a610c8d565b6127108111156105cf576040517f08c379a00000000000000000000000000000000000000000000000000000000081526004016105c6906114d4565b60405180910390fd5b8060048190555050565b60056020528060005260406000206000915090505481565b60035481565b60045481565b60076020528060005260406000206000915054906101000a900460ff1681565b610625610c8d565b61062f6000610d63565b565b610639610d14565b6007600082815260200190815260200160002060009054906101000a900460ff16610699576040517f08c379a000000000000000000000000000000000000000000000000000000000815260040161069090611540565b60405180910390fd5b60006006600083815260200190815260200160002060003373ffffffffffffffffffffffffffffffffffffffff1673ffffffffffffffffffffffffffffffffffffffff16815260200190815260200160002054905060008111610731576040517f08c379a0000000000000000000000000000000000000000000000000000000008152600401610728906115ac565b60405180910390fd5b60006004546127106107439190611340565b90506000612710828461075691906115cc565b610760919061163d565b905060006006600086815260200190815260200160002060003373ffffffffffffffffffffffffffffffffffffffff1673ffffffffffffffffffffffffffffffffffffffff16815260200190815260200160002081905550600260009054906101000a900473ffffffffffffffffffffffffffffffffffffffff1673ffffffffffffffffffffffffffffffffffffffff1663a9059cbb33836040518363ffffffff1660e01b8152600401610815929190611374565b6020604051808303816000875af1158015610834573d6000803e3d6000fd5b505050506040513d601f19601f8201168201806040525081019061085891906113c9565b610897576040517f08c379a000000000000000000000000000000000000000000000000000000000815260040161088e90611442565b60405180910390fd5b833373ffffffffffffffffffffffffffffffffffffffff167f3a834fb344168e2f3d3401f9263ace847d54e4f7913a4e051c309fda222447e2836040516108de9190611068565b60405180910390a35050506108f1610d5a565b50565b60008060009054906101000a900473ffffffffffffffffffffffffffffffffffffffff16905090565b610925610d14565b6007600083815260200190815260200160002060009054906101000a900460ff1615610986576040517f08c379a000000000000000000000000000000000000000000000000000000000815260040161097d90611285565b60405180910390fd5b600081116109c9576040517f08c379a00000000000000000000000000000000000000000000000000000000081526004016109c0906116ba565b60405180910390fd5b600260009054906101000a900473ffffffffffffffffffffffffffffffffffffffff1673ffffffffffffffffffffffffffffffffffffffff166323b872dd3330846040518463ffffffff1660e01b8152600401610a28939291906116da565b6020604051808303816000875af1158015610a47573d6000803e3d6000fd5b505050506040513d601f19601f82011682018060405250810190610a6b91906113c9565b610aaa576040517f08c379a0000000000000000000000000000000000000000000000000000000008152600401610aa190611442565b60405180910390fd5b806006600084815260200190815260200160002060003373ffffffffffffffffffffffffffffffffffffffff1673ffffffffffffffffffffffffffffffffffffffff1681526020019081526020016000206000828254610b0a9190611711565b9250508190555080600560008481526020019081526020016000206000828254610b349190611711565b92505081905550813373ffffffffffffffffffffffffffffffffffffffff167fb4cfecf70861b7b150d8337780d34fb4cbc2114b5fb1fe51a5c5fca1849f727483604051610b829190611068565b60405180910390a3600354600560008481526020019081526020016000205410610bb057610baf82610e27565b5b610bb8610d5a565b5050565b600260009054906101000a900473ffffffffffffffffffffffffffffffffffffffff1681565b610bea610c8d565b600073ffffffffffffffffffffffffffffffffffffffff168173ffffffffffffffffffffffffffffffffffffffff1603610c5c5760006040517f1e4fbdf7000000000000000000000000000000000000000000000000000000008152600401610c5391906110fa565b60405180910390fd5b610c6581610d63565b50565b6006602052816000526040600020602052806000526040600020600091509150505481565b610c95610fa9565b73ffffffffffffffffffffffffffffffffffffffff16610cb36108f4565b73ffffffffffffffffffffffffffffffffffffffff1614610d1257610cd6610fa9565b6040517f118cdaa7000000000000000000000000000000000000000000000000000000008152600401610d0991906110fa565b60405180910390fd5b565b600260015403610d50576040517f3ee5aeb500000000000000000000000000000000000000000000000000000000815260040160405180910390fd5b6002600181905550565b60018081905550565b60008060009054906101000a900473ffffffffffffffffffffffffffffffffffffffff169050816000806101000a81548173ffffffffffffffffffffffffffffffffffffffff021916908373ffffffffffffffffffffffffffffffffffffffff1602179055508173ffffffffffffffffffffffffffffffffffffffff168173ffffffffffffffffffffffffffffffffffffffff167f8be0079c531659141344cd1fd0a4f28419497f9722a3daafe3b4186f6b6457e060405160405180910390a35050565b60016007600083815260200190815260200160002060006101000a81548160ff021916908315150217905550600060056000838152602001908152602001600020549050600061271060045483610e7e91906115cc565b610e88919061163d565b9050600260009054906101000a900473ffffffffffffffffffffffffffffffffffffffff1673ffffffffffffffffffffffffffffffffffffffff1663a9059cbb6000836040518363ffffffff1660e01b8152600401610ee8929190611374565b6020604051808303816000875af1158015610f07573d6000803e3d6000fd5b505050506040513d601f19601f82011682018060405250810190610f2b91906113c9565b610f6a576040517f08c379a0000000000000000000000000000000000000000000000000000000008152600401610f6190611791565b60405180910390fd5b827f156f8387f400d8d635cbbb36ebdbf45ae17359393ca87a2e96b5b224385585c28383604051610f9c9291906117b1565b60405180910390a2505050565b600033905090565b600080fd5b6000819050919050565b610fc981610fb6565b8114610fd457600080fd5b50565b600081359050610fe681610fc0565b92915050565b60006020828403121561100257611001610fb1565b5b600061101084828501610fd7565b91505092915050565b600080604083850312156110305761102f610fb1565b5b600061103e85828601610fd7565b925050602061104f85828601610fd7565b9150509250929050565b61106281610fb6565b82525050565b600060208201905061107d6000830184611059565b92915050565b60008115159050919050565b61109881611083565b82525050565b60006020820190506110b3600083018461108f565b92915050565b600073ffffffffffffffffffffffffffffffffffffffff82169050919050565b60006110e4826110b9565b9050919050565b6110f4816110d9565b82525050565b600060208201905061110f60008301846110eb565b92915050565b6000819050919050565b600061113a611135611130846110b9565b611115565b6110b9565b9050919050565b600061114c8261111f565b9050919050565b600061115e82611141565b9050919050565b61116e81611153565b82525050565b60006020820190506111896000830184611165565b92915050565b611198816110d9565b81146111a357600080fd5b50565b6000813590506111b58161118f565b92915050565b6000602082840312156111d1576111d0610fb1565b5b60006111df848285016111a6565b91505092915050565b600080604083850312156111ff576111fe610fb1565b5b600061120d85828601610fd7565b925050602061121e858286016111a6565b9150509250929050565b600082825260208201905092915050565b7f446973747269637420616c726561647920756e6c6f636b656400000000000000600082015250565b600061126f601983611228565b915061127a82611239565b602082019050919050565b6000602082019050818103600083015261129e81611262565b9050919050565b7f496e73756666696369656e7420766f74652062616c616e636500000000000000600082015250565b60006112db601983611228565b91506112e6826112a5565b602082019050919050565b6000602082019050818103600083015261130a816112ce565b9050919050565b7f4e487b7100000000000000000000000000000000000000000000000000000000600052601160045260246000fd5b600061134b82610fb6565b915061135683610fb6565b925082820390508181111561136e5761136d611311565b5b92915050565b600060408201905061138960008301856110eb565b6113966020830184611059565b9392505050565b6113a681611083565b81146113b157600080fd5b50565b6000815190506113c38161139d565b92915050565b6000602082840312156113df576113de610fb1565b5b60006113ed848285016113b4565b91505092915050565b7f5472616e73666572206661696c65640000000000000000000000000000000000600082015250565b600061142c600f83611228565b9150611437826113f6565b602082019050919050565b6000602082019050818103600083015261145b8161141f565b9050919050565b7f4275726e2070657263656e746167652063616e6e6f742065786365656420313060008201527f3025000000000000000000000000000000000000000000000000000000000000602082015250565b60006114be602283611228565b91506114c982611462565b604082019050919050565b600060208201905081810360008301526114ed816114b1565b9050919050565b7f4469737472696374206e6f7420756e6c6f636b65640000000000000000000000600082015250565b600061152a601583611228565b9150611535826114f4565b602082019050919050565b600060208201905081810360008301526115598161151d565b9050919050565b7f4e6f20766f74657320746f207769746864726177000000000000000000000000600082015250565b6000611596601483611228565b91506115a182611560565b602082019050919050565b600060208201905081810360008301526115c581611589565b9050919050565b60006115d782610fb6565b91506115e283610fb6565b92508282026115f081610fb6565b9150828204841483151761160757611606611311565b5b5092915050565b7f4e487b7100000000000000000000000000000000000000000000000000000000600052601260045260246000fd5b600061164882610fb6565b915061165383610fb6565b9250826116635761166261160e565b5b828204905092915050565b7f416d6f756e74206d7573742062652067726561746572207468616e2030000000600082015250565b60006116a4601d83611228565b91506116af8261166e565b602082019050919050565b600060208201905081810360008301526116d381611697565b9050919050565b60006060820190506116ef60008301866110eb565b6116fc60208301856110eb565b6117096040830184611059565b949350505050565b600061171c82610fb6565b915061172783610fb6565b925082820190508082111561173f5761173e611311565b5b92915050565b7f4275726e207472616e73666572206661696c6564000000000000000000000000600082015250565b600061177b601483611228565b915061178682611745565b602082019050919050565b600060208201905081810360008301526117aa8161176e565b9050919050565b60006040820190506117c66000830185611059565b6117d36020830184611059565b939250505056fea2646970667358221220c16a9116d967eeb89bd4f90319a3cec2178da341b7ab83fe4979c5fd7c96543864736f6c634300081b0033",
  "linkReferences": {},
  "deployedLinkReferences": {}
}